{
  "transactions": [
    {
      "hash": "0x0d376b40f9583cde84ead641029c5087d8735603f7a262b89569bdf293a484ec",
      "transactionType": "CALL",
      "contractName": null,
      "contractAddress": "0x0a68efc847b8c310616ef408df362e00e5341c84",
      "function": "adminCreateProduct(uint256,string,string,uint256,uint256,string)",
      "arguments": [
        "1",
        "Glow Serum Set",
        "beauty",
        "550000000000000",
        "100",
        "ipfs://bafkreibj6rhyrezamnij7akpignyg5jcndtcdp3q6zukf343fmhnyuhdwm"
      ],
      "transaction": {
        "from": "0x32fe11d9900d63350016374be98ff37c3af75847",
        "to": "0x0a68efc847b8c310616ef408df362e00e5341c84",
        "gas": "0x6e6b9",
        "value": "0x0",
        "input": "0xffb56e3e000000000000000000000000000000000000000000000000000000000000000100000000000000000000000000000000000000000000000000000000000000c000000000000000000000000000000000000000000000000000000000000001000000000000000000000000000000000000000000000000000001f438daa0600000000000000000000000000000000000000000000000000000000000000000640000000000000000000000000000000000000000000000000000000000000140000000000000000000000000000000000000000000000000000000000000000e476c6f7720536572756d20536574000000000000000000000000000000000000000000000000000000000000000000000000000000000000000000000000000662656175747900000000000000000000000000000000000000000000000000000000000000000000000000000000000000000000000000000000000000000042697066733a2f2f6261666b726569626a3672687972657a616d6e696a37616b7069676e7967356a636e64746364703371367a756b66333433666d686e79756864776d000000000000000000000000000000000000000000000000000000000000",
        "nonce": "0xdc",
        "chainId": "0x13882"
      },
      "additionalContracts": [],
      "isFixedGasLimit": false
    },
    {
      "hash": "0x5b121d5373307e59a71c951f3db1ceed8a2b855cb1e7f22ccf3ff5bc3bf74651",
      "transactionType": "CALL",
      "contractName": null,
      "contractAddress": "0x0a68efc847b8c310616ef408df362e00e5341c84",
      "function": "adminCreateProduct(uint256,string,string,uint256,uint256,string)",
      "arguments": [
        "1",
        "K-Beauty Sheet Mask Pack",
        "beauty",
        "350000000000000",
        "200",
        "ipfs://bafkreibyijs5qccd2w4fvtyga3x6cbovwcw7oukskx2qu264zpc7n6peuu"
      ],
      "transaction": {
        "from": "0x32fe11d9900d63350016374be98ff37c3af75847",
        "to": "0x0a68efc847b8c310616ef408df362e00e5341c84",
        "gas": "0x68b1c",
        "value": "0x0",
        "input": "0xffb56e3e000000000000000000000000000000000000000000000000000000000000000100000000000000000000000000000000000000000000000000000000000000c0000000000000000000000000000000000000000000000000000000000000010000000000000000000000000000000000000000000000000000013e52b9abe00000000000000000000000000000000000000000000000000000000000000000c8000000000000000000000000000000000000000000000000000000000000014000000000000000000000000000000000000000000000000000000000000000184b2d426561757479205368656574204d61736b205061636b0000000000000000000000000000000000000000000000000000000000000000000000000000000662656175747900000000000000000000000000000000000000000000000000000000000000000000000000000000000000000000000000000000000000000042697066733a2f2f6261666b7265696279696a73357163636432773466767479676133783663626f76776377376f756b736b783271753236347a7063376e3670657575000000000000000000000000000000000000000000000000000000000000",
        "nonce": "0xdd",
        "chainId": "0x13882"
      },
      "additionalContracts": [],
      "isFixedGasLimit": false
    },
    {
      "hash": null,
      "transactionType": "CALL",
      "contractName": null,
      "contractAddress": "0x0a68efc847b8c310616ef408df362e00e5341c84",
      "function": "adminCreateProduct(uint256,string,string,uint256,uint256,string)",
      "arguments": [
        "1",
        "Cushion Foundation SPF50",
        "beauty",
        "480000000000000",
        "75",
        "ipfs://bafkreia7z7svnkmlipihl3z7drx55ftdd4yso725zy5b6eygsgbnlto2jy"
      ],
      "transaction": {
        "from": "0x32fe11d9900d63350016374be98ff37c3af75847",
        "to": "0x0a68efc847b8c310616ef408df362e00e5341c84",
        "gas": "0x68b0b",
        "value": "0x0",
        "input": "0xffb56e3e000000000000000000000000000000000000000000000000000000000000000100000000000000000000000000000000000000000000000000000000000000c000000000000000000000000000000000000000000000000000000000000001000000000000000000000000000000000000000000000000000001b48eb57e0000000000000000000000000000000000000000000000000000000000000000004b0000000000000000000000000000000000000000000000000000000000000140000000000000000000000000000000000000000000000000000000000000001843757368696f6e20466f756e646174696f6e2053504635300000000000000000000000000000000000000000000000000000000000000000000000000000000662656175747900000000000000000000000000000000000000000000000000000000000000000000000000000000000000000000000000000000000000000042697066733a2f2f6261666b72656961377a3773766e6b6d6c697069686c337a376472783535667464643479736f3732357a793562366579677367626e6c746f326a79000000000000000000000000000000000000000000000000000000000000",
        "nonce": "0xde",
        "chainId": "0x13882"
      },
      "additionalContracts": [],
      "isFixedGasLimit": false
    },
    {
      "hash": null,
      "transactionType": "CALL",
      "contractName": null,
      "contractAddress": "0x0a68efc847b8c310616ef408df362e00e5341c84",
      "function": "adminCreateProduct(uint256,string,string,uint256,uint256,string)",
      "arguments": [
        "2",
        "Oversized Korean Blazer",
        "fashion",
        "780000000000000",
        "50",
        "ipfs://bafkreielptqlaqfsrkxroneo5m2ehv5mvkh4ulbakncszdqpmskh677mve"
      ],
      "transaction": {
        "from": "0x32fe11d9900d63350016374be98ff37c3af75847",
        "to": "0x0a68efc847b8c310616ef408df362e00e5341c84",
        "gas": "0x6e75e",
        "value": "0x0",
        "input": "0xffb56e3e000000000000000000000000000000000000000000000000000000000000000200000000000000000000000000000000000000000000000000000000000000c000000000000000000000000000000000000000000000000000000000000001000000000000000000000000000000000000000000000000000002c567e6ecc0000000000000000000000000000000000000000000000000000000000000000032000000000000000000000000000000000000000000000000000000000000014000000000000000000000000000000000000000000000000000000000000000174f76657273697a6564204b6f7265616e20426c617a6572000000000000000000000000000000000000000000000000000000000000000000000000000000000766617368696f6e000000000000000000000000000000000000000000000000000000000000000000000000000000000000000000000000000000000000000042697066733a2f2f6261666b726569656c7074716c61716673726b78726f6e656f356d32656876356d766b6834756c62616b6e63737a6471706d736b683637376d7665000000000000000000000000000000000000000000000000000000000000",
        "nonce": "0xdf",
        "chainId": "0x13882"
      },
      "additionalContracts": [],
      "isFixedGasLimit": false
    },
    {
      "hash": null,
      "transactionType": "CALL",
      "contractName": null,
      "contractAddress": "0x0a68efc847b8c310616ef408df362e00e5341c84",
      "function": "adminCreateProduct(uint256,string,string,uint256,uint256,string)",
      "arguments": [
        "2",
        "Wide Leg Pants",
        "fashion",
        "450000000000000",
        "80",
        "ipfs://bafkreihmhbrhkrwymuitpj652bcxk7weyk2xm4wgrldw53sjwyl3o6yiqq"
      ],
      "transaction": {
        "from": "0x32fe11d9900d63350016374be98ff37c3af75847",
        "to": "0x0a68efc847b8c310616ef408df362e00e5341c84",
        "gas": "0x68a86",
        "value": "0x0",
        "input": "0xffb56e3e000000000000000000000000000000000000000000000000000000000000000200000000000000000000000000000000000000000000000000000000000000c0000000000000000000000000000000000000000000000000000000000000010000000000000000000000000000000000000000000000000000019945ca26200000000000000000000000000000000000000000000000000000000000000000500000000000000000000000000000000000000000000000000000000000000140000000000000000000000000000000000000000000000000000000000000000e57696465204c65672050616e7473000000000000000000000000000000000000000000000000000000000000000000000000000000000000000000000000000766617368696f6e000000000000000000000000000000000000000000000000000000000000000000000000000000000000000000000000000000000000000042697066733a2f2f6261666b726569686d686272686b7277796d756974706a3635326263786b377765796b32786d347767726c64773533736a77796c336f3679697171000000000000000000000000000000000000000000000000000000000000",
        "nonce": "0xe0",
        "chainId": "0x13882"
      },
      "additionalContracts": [],
      "isFixedGasLimit": false
    },
    {
      "hash": null,
      "transactionType": "CALL",
      "contractName": null,
      "contractAddress": "0x0a68efc847b8c310616ef408df362e00e5341c84",
      "function": "adminCreateProduct(uint256,string,string,uint256,uint256,string)",
      "arguments": [
        "2",
        "Korean Style Bucket Hat",
        "fashion",
        "320000000000000",
        "150",
        "ipfs://bafkreidx2uoxj7yqj2dejs5slphrz7ghigue2tkqii73mwrrqczsa3fckm"
      ],
      "transaction": {
        "from": "0x32fe11d9900d63350016374be98ff37c3af75847",
        "to": "0x0a68efc847b8c310616ef408df362e00e5341c84",
        "gas": "0x68b0b",
        "value": "0x0",
        "input": "0xffb56e3e000000000000000000000000000000000000000000000000000000000000000200000000000000000000000000000000000000000000000000000000000000c0000000000000000000000000000000000000000000000000000000000000010000000000000000000000000000000000000000000000000000012309ce5400000000000000000000000000000000000000000000000000000000000000000096000000000000000000000000000000000000000000000000000000000000014000000000000000000000000000000000000000000000000000000000000000174b6f7265616e205374796c65204275636b657420486174000000000000000000000000000000000000000000000000000000000000000000000000000000000766617368696f6e000000000000000000000000000000000000000000000000000000000000000000000000000000000000000000000000000000000000000042697066733a2f2f6261666b726569647832756f786a3779716a3264656a7335736c7068727a3767686967756532746b71696937336d77727271637a73613366636b6d000000000000000000000000000000000000000000000000000000000000",
        "nonce": "0xe1",
        "chainId": "0x13882"
      },
      "additionalContracts": [],
      "isFixedGasLimit": false
    },
    {
      "hash": null,
      "transactionType": "CALL",
      "contractName": null,
      "contractAddress": "0x0a68efc847b8c310616ef408df362e00e5341c84",
      "function": "adminCreateProduct(uint256,string,string,uint256,uint256,string)",
      "arguments": [
        "3",
        "Premium Kimchi Set",
        "food",
        "420000000000000",
        "60",
        "ipfs://bafkreig6dauzza5juhegclgouiga3nh67uxpg64gv5ceiuobqsmgj3xpzu"
      ],
      "transaction": {
        "from": "0x32fe11d9900d63350016374be98ff37c3af75847",
        "to": "0x0a68efc847b8c310616ef408df362e00e5341c84",
        "gas": "0x6e6da",
        "value": "0x0",
        "input": "0xffb56e3e000000000000000000000000000000000000000000000000000000000000000300000000000000000000000000000000000000000000000000000000000000c0000000000000000000000000000000000000000000000000000000000000010000000000000000000000000000000000000000000000000000017dfcdece4000000000000000000000000000000000000000000000000000000000000000003c000000000000000000000000000000000000000000000000000000000000014000000000000000000000000000000000000000000000000000000000000000125072656d69756d204b696d6368692053657400000000000000000000000000000000000000000000000000000000000000000000000000000000000000000004666f6f64000000000000000000000000000000000000000000000000000000000000000000000000000000000000000000000000000000000000000000000042697066733a2f2f6261666b72656967366461757a7a61356a75686567636c676f75696761336e683637757870673634677635636569756f6271736d676a3378707a75000000000000000000000000000000000000000000000000000000000000",
        "nonce": "0xe2",
        "chainId": "0x13882"
      },
      "additionalContracts": [],
      "isFixedGasLimit": false
    },
    {
      "hash": null,
      "transactionType": "CALL",
      "contractName": null,
      "contractAddress": "0x0a68efc847b8c310616ef408df362e00e5341c84",
      "function": "adminCreateProduct(uint256,string,string,uint256,uint256,string)",
      "arguments": [
        "3",
        "Korean Snack Box",
        "food",
        "380000000000000",
        "40",
        "ipfs://bafkreifil4vng7bmsndmk2kb4u6hwqzl232xs6xk4hs2ohz6yqtd5keae4"
      ],
      "transaction": {
        "from": "0x32fe11d9900d63350016374be98ff37c3af75847",
        "to": "0x0a68efc847b8c310616ef408df362e00e5341c84",
        "gas": "0x68a76",
        "value": "0x0",
        "input": "0xffb56e3e000000000000000000000000000000000000000000000000000000000000000300000000000000000000000000000000000000000000000000000000000000c000000000000000000000000000000000000000000000000000000000000001000000000000000000000000000000000000000000000000000001599ba503c0000000000000000000000000000000000000000000000000000000000000000028000000000000000000000000000000000000000000000000000000000000014000000000000000000000000000000000000000000000000000000000000000104b6f7265616e20536e61636b20426f78000000000000000000000000000000000000000000000000000000000000000000000000000000000000000000000004666f6f64000000000000000000000000000000000000000000000000000000000000000000000000000000000000000000000000000000000000000000000042697066733a2f2f6261666b72656966696c34766e6737626d736e646d6b326b623475366877717a6c323332787336786b346873326f687a3679717464356b65616534000000000000000000000000000000000000000000000000000000000000",
        "nonce": "0xe3",
        "chainId": "0x13882"
      },
      "additionalContracts": [],
      "isFixedGasLimit": false
    },
    {
      "hash": null,
      "transactionType": "CALL",
      "contractName": null,
      "contractAddress": "0x0a68efc847b8c310616ef408df362e00e5341c84",
      "function": "adminCreateProduct(uint256,string,string,uint256,uint256,string)",
      "arguments": [
        "3",
        "Gochujang Sauce Set",
        "food",
        "300000000000000",
        "90",
        "ipfs://bafkreia5wyt7rpoybba6bfwejp3mnxqzpnqsdxuqz3gulagpnebyec35yu"
      ],
      "transaction": {
        "from": "0x32fe11d9900d63350016374be98ff37c3af75847",
        "to": "0x0a68efc847b8c310616ef408df362e00e5341c84",
        "gas": "0x68aa7",
        "value": "0x0",
        "input": "0xffb56e3e000000000000000000000000000000000000000000000000000000000000000300000000000000000000000000000000000000000000000000000000000000c00000000000000000000000000000000000000000000000000000000000000100000000000000000000000000000000000000000000000000000110d9316ec000000000000000000000000000000000000000000000000000000000000000005a00000000000000000000000000000000000000000000000000000000000001400000000000000000000000000000000000000000000000000000000000000013476f6368756a616e6720536175636520536574000000000000000000000000000000000000000000000000000000000000000000000000000000000000000004666f6f64000000000000000000000000000000000000000000000000000000000000000000000000000000000000000000000000000000000000000000000042697066733a2f2f6261666b72656961357779743772706f7962626136626677656a70336d6e78717a706e7173647875717a3367756c6167706e656279656333357975000000000000000000000000000000000000000000000000000000000000",
        "nonce": "0xe4",
        "chainId": "0x13882"
      },
      "additionalContracts": [],
      "isFixedGasLimit": false
    },
    {
      "hash": null,
      "transactionType": "CALL",
      "contractName": null,
      "contractAddress": "0x0a68efc847b8c310616ef408df362e00e5341c84",
      "function": "adminCreateProduct(uint256,string,string,uint256,uint256,string)",
      "arguments": [
        "4",
        "Wireless Earbuds Pro",
        "electronics",
        "750000000000000",
        "35",
        "ipfs://bafkreiec7dfgvlx2fgihyvzm4bly77466sdsz5ancnbrr7mgsf76ugodha"
      ],
      "transaction": {
        "from": "0x32fe11d9900d63350016374be98ff37c3af75847",
        "to": "0x0a68efc847b8c310616ef408df362e00e5341c84",
        "gas": "0x6e76f",
        "value": "0x0",
        "input": "0xffb56e3e000000000000000000000000000000000000000000000000000000000000000400000000000000000000000000000000000000000000000000000000000000c000000000000000000000000000000000000000000000000000000000000001000000000000000000000000000000000000000000000000000002aa1efb94e000000000000000000000000000000000000000000000000000000000000000002300000000000000000000000000000000000000000000000000000000000001400000000000000000000000000000000000000000000000000000000000000014576972656c65737320456172627564732050726f000000000000000000000000000000000000000000000000000000000000000000000000000000000000000b656c656374726f6e6963730000000000000000000000000000000000000000000000000000000000000000000000000000000000000000000000000000000042697066733a2f2f6261666b726569656337646667766c78326667696879767a6d34626c7937373436367364737a35616e636e627272376d677366373675676f646861000000000000000000000000000000000000000000000000000000000000",
        "nonce": "0xe5",
        "chainId": "0x13882"
      },
      "additionalContracts": [],
      "isFixedGasLimit": false
    },
    {
      "hash": null,
      "transactionType": "CALL",
      "contractName": null,
      "contractAddress": "0x0a68efc847b8c310616ef408df362e00e5341c84",
      "function": "adminCreateProduct(uint256,string,string,uint256,uint256,string)",
      "arguments": [
        "4",
        "Smart Watch Band Pack",
        "electronics",
        "400000000000000",
        "120",
        "ipfs://bafkreigpjjqcwecacwbpgdrfatorsz6lxskizj54fb4xusvprkcpcexur4"
      ],
      "transaction": {
        "from": "0x32fe11d9900d63350016374be98ff37c3af75847",
        "to": "0x0a68efc847b8c310616ef408df362e00e5341c84",
        "gas": "0x68b2c",
        "value": "0x0",
        "input": "0xffb56e3e000000000000000000000000000000000000000000000000000000000000000400000000000000000000000000000000000000000000000000000000000000c0000000000000000000000000000000000000000000000000000000000000010000000000000000000000000000000000000000000000000000016bcc41e90000000000000000000000000000000000000000000000000000000000000000007800000000000000000000000000000000000000000000000000000000000001400000000000000000000000000000000000000000000000000000000000000015536d6172742057617463682042616e64205061636b0000000000000000000000000000000000000000000000000000000000000000000000000000000000000b656c656374726f6e6963730000000000000000000000000000000000000000000000000000000000000000000000000000000000000000000000000000000042697066733a2f2f6261666b72656967706a6a716377656361637762706764726661746f72737a366c78736b697a6a35346662347875737670726b6370636578757234000000000000000000000000000000000000000000000000000000000000",
        "nonce": "0xe6",
        "chainId": "0x13882"
      },
      "additionalContracts": [],
      "isFixedGasLimit": false
    },
    {
      "hash": null,
      "transactionType": "CALL",
      "contractName": null,
      "contractAddress": "0x0a68efc847b8c310616ef408df362e00e5341c84",
      "function": "adminCreateProduct(uint256,string,string,uint256,uint256,string)",
      "arguments": [
        "4",
        "Portable Charger 20000mAh",
        "electronics",
        "580000000000000",
        "90",
        "ipfs://bafkreidnbudosf2mali4lm54oshiqkt2okc2ppcvm6fu7ahge2rgzpnsvm"
      ],
      "transaction": {
        "from": "0x32fe11d9900d63350016374be98ff37c3af75847",
        "to": "0x0a68efc847b8c310616ef408df362e00e5341c84",
        "gas": "0x68b7f",
        "value": "0x0",
        "input": "0xffb56e3e000000000000000000000000000000000000000000000000000000000000000400000000000000000000000000000000000000000000000000000000000000c0000000000000000000000000000000000000000000000000000000000000010000000000000000000000000000000000000000000000000000020f81c5f84000000000000000000000000000000000000000000000000000000000000000005a00000000000000000000000000000000000000000000000000000000000001400000000000000000000000000000000000000000000000000000000000000019506f727461626c6520436861726765722032303030306d416800000000000000000000000000000000000000000000000000000000000000000000000000000b656c656374726f6e6963730000000000000000000000000000000000000000000000000000000000000000000000000000000000000000000000000000000042697066733a2f2f6261666b726569646e6275646f7366326d616c69346c6d35346f736869716b74326f6b6332707063766d36667537616867653272677a706e73766d000000000000000000000000000000000000000000000000000000000000",
        "nonce": "0xe7",
        "chainId": "0x13882"
      },
      "additionalContracts": [],
      "isFixedGasLimit": false
    },
    {
      "hash": null,
      "transactionType": "CALL",
      "contractName": null,
      "contractAddress": "0x0a68efc847b8c310616ef408df362e00e5341c84",
      "function": "adminCreateProduct(uint256,string,string,uint256,uint256,string)",
      "arguments": [
        "5",
        "Korean Ceramic Tea Set",
        "home",
        "680000000000000",
        "25",
        "ipfs://bafkreic2mn5uolkc7eomyyx44cfkxfdegvl2r2yalq434bm53iqgn5prtm"
      ],
      "transaction": {
        "from": "0x32fe11d9900d63350016374be98ff37c3af75847",
        "to": "0x0a68efc847b8c310616ef408df362e00e5341c84",
        "gas": "0x6e71c",
        "value": "0x0",
        "input": "0xffb56e3e000000000000000000000000000000000000000000000000000000000000000500000000000000000000000000000000000000000000000000000000000000c0000000000000000000000000000000000000000000000000000000000000010000000000000000000000000000000000000000000000000000026a74d67280000000000000000000000000000000000000000000000000000000000000000019000000000000000000000000000000000000000000000000000000000000014000000000000000000000000000000000000000000000000000000000000000164b6f7265616e20436572616d69632054656120536574000000000000000000000000000000000000000000000000000000000000000000000000000000000004686f6d65000000000000000000000000000000000000000000000000000000000000000000000000000000000000000000000000000000000000000000000042697066733a2f2f6261666b72656963326d6e35756f6c6b6337656f6d797978343463666b7866646567766c32723279616c71343334626d35336971676e357072746d000000000000000000000000000000000000000000000000000000000000",
        "nonce": "0xe8",
        "chainId": "0x13882"
      },
      "additionalContracts": [],
      "isFixedGasLimit": false
    },
    {
      "hash": null,
      "transactionType": "CALL",
      "contractName": null,
      "contractAddress": "0x0a68efc847b8c310616ef408df362e00e5341c84",
      "function": "adminCreateProduct(uint256,string,string,uint256,uint256,string)",
      "arguments": [
        "5",
        "Hanji Paper Lamp",
        "home",
        "550000000000000",
        "30",
        "ipfs://bafkreiajz7ufea2ubu5ypd6av2iygwckv43rw7sp7jvhlrwc7cnp52gns4"
      ],
      "transaction": {
        "from": "0x32fe11d9900d63350016374be98ff37c3af75847",
        "to": "0x0a68efc847b8c310616ef408df362e00e5341c84",
        "gas": "0x68a76",
        "value": "0x0",
        "input": "0xffb56e3e000000000000000000000000000000000000000000000000000000000000000500000000000000000000000000000000000000000000000000000000000000c000000000000000000000000000000000000000000000000000000000000001000000000000000000000000000000000000000000000000000001f438daa06000000000000000000000000000000000000000000000000000000000000000001e0000000000000000000000000000000000000000000000000000000000000140000000000000000000000000000000000000000000000000000000000000001048616e6a69205061706572204c616d70000000000000000000000000000000000000000000000000000000000000000000000000000000000000000000000004686f6d65000000000000000000000000000000000000000000000000000000000000000000000000000000000000000000000000000000000000000000000042697066733a2f2f6261666b726569616a7a377566656132756275357970643661763269796777636b7634337277377370376a76686c72776337636e703532676e7334000000000000000000000000000000000000000000000000000000000000",
        "nonce": "0xe9",
        "chainId": "0x13882"
      },
      "additionalContracts": [],
      "isFixedGasLimit": false
    },
    {
      "hash": null,
      "transactionType": "CALL",
      "contractName": null,
      "contractAddress": "0x0a68efc847b8c310616ef408df362e00e5341c84",
      "function": "adminCreateProduct(uint256,string,string,uint256,uint256,string)",
      "arguments": [
        "5",
        "Bamboo Organizer Set",
        "home",
        "360000000000000",
        "65",
        "ipfs://bafkreid5li2cfh3ydjp6yp54aokt36nabbh4zc6lncg3egupxxct7uxhcy"
      ],
      "transaction": {
        "from": "0x32fe11d9900d63350016374be98ff37c3af75847",
        "to": "0x0a68efc847b8c310616ef408df362e00e5341c84",
        "gas": "0x68ab8",
        "value": "0x0",
        "input": "0xffb56e3e000000000000000000000000000000000000000000000000000000000000000500000000000000000000000000000000000000000000000000000000000000c000000000000000000000000000000000000000000000000000000000000001000000000000000000000000000000000000000000000000000001476b081e800000000000000000000000000000000000000000000000000000000000000000410000000000000000000000000000000000000000000000000000000000000140000000000000000000000000000000000000000000000000000000000000001442616d626f6f204f7267616e697a6572205365740000000000000000000000000000000000000000000000000000000000000000000000000000000000000004686f6d65000000000000000000000000000000000000000000000000000000000000000000000000000000000000000000000000000000000000000000000042697066733a2f2f6261666b72656964356c69326366683379646a703679703534616f6b7433366e61626268347a63366c6e6367336567757078786374377578686379000000000000000000000000000000000000000000000000000000000000",
        "nonce": "0xea",
        "chainId": "0x13882"
      },
      "additionalContracts": [],
      "isFixedGasLimit": false
    }
  ],
  "receipts": [],
  "libraries": [],
  "pending": [
    "0x0d376b40f9583cde84ead641029c5087d8735603f7a262b89569bdf293a484ec",
    "0x5b121d5373307e59a71c951f3db1ceed8a2b855cb1e7f22ccf3ff5bc3bf74651"
  ],
  "returns": {},
  "timestamp": 1767271733,
  "chain": 80002,
  "commit": "aff47ed"
}