{
  "transactions": [
    {
      "hash": null,
      "transactionType": "CALL",
      "contractName": null,
      "contractAddress": "0x0a68efc847b8c310616ef408df362e00e5341c84",
      "function": "adminCreateProduct(uint256,string,string,uint256,uint256,string)",
      "arguments": [
        "1",
        "Glow Serum Set",
        "beauty",
        "550000000000000",
        "100",
        "ipfs://bafkreibj6rhyrezamnij7akpignyg5jcndtcdp3q6zukf343fmhnyuhdwm"
      ],
      "transaction": {
        "from": "0x32fe11d9900d63350016374be98ff37c3af75847",
        "to": "0x0a68efc847b8c310616ef408df362e00e5341c84",
        "gas": "0x68a76",
        "value": "0x0",
        "input": "0xffb56e3e000000000000000000000000000000000000000000000000000000000000000100000000000000000000000000000000000000000000000000000000000000c000000000000000000000000000000000000000000000000000000000000001000000000000000000000000000000000000000000000000000001f438daa0600000000000000000000000000000000000000000000000000000000000000000640000000000000000000000000000000000000000000000000000000000000140000000000000000000000000000000000000000000000000000000000000000e476c6f7720536572756d20536574000000000000000000000000000000000000000000000000000000000000000000000000000000000000000000000000000662656175747900000000000000000000000000000000000000000000000000000000000000000000000000000000000000000000000000000000000000000042697066733a2f2f6261666b726569626a3672687972657a616d6e696a37616b7069676e7967356a636e64746364703371367a756b66333433666d686e79756864776d000000000000000000000000000000000000000000000000000000000000",
        "nonce": "0xdd",
        "chainId": "0x13882"
      },
      "additionalContracts": [],
      "isFixedGasLimit": false
    },
    {
      "hash": null,
      "transactionType": "CALL",
      "contractName": null,
      "contractAddress": "0x0a68efc847b8c310616ef408df362e00e5341c84",
      "function": "adminCreateProduct(uint256,string,string,uint256,uint256,string)",
      "arguments": [
        "1",
        "K-Beauty Sheet Mask Pack",
        "beauty",
        "350000000000000",
        "200",
        "ipfs://bafkreibyijs5qccd2w4fvtyga3x6cbovwcw7oukskx2qu264zpc7n6peuu"
      ],
      "transaction": {
        "from": "0x32fe11d9900d63350016374be98ff37c3af75847",
        "to": "0x0a68efc847b8c310616ef408df362e00e5341c84",
        "gas": "0x68b1c",
        "value": "0x0",
        "input": "0xffb56e3e000000000000000000000000000000000000000000000000000000000000000100000000000000000000000000000000000000000000000000000000000000c0000000000000000000000000000000000000000000000000000000000000010000000000000000000000000000000000000000000000000000013e52b9abe00000000000000000000000000000000000000000000000000000000000000000c8000000000000000000000000000000000000000000000000000000000000014000000000000000000000000000000000000000000000000000000000000000184b2d426561757479205368656574204d61736b205061636b0000000000000000000000000000000000000000000000000000000000000000000000000000000662656175747900000000000000000000000000000000000000000000000000000000000000000000000000000000000000000000000000000000000000000042697066733a2f2f6261666b7265696279696a73357163636432773466767479676133783663626f76776377376f756b736b783271753236347a7063376e3670657575000000000000000000000000000000000000000000000000000000000000",
        "nonce": "0xde",
        "chainId": "0x13882"
      },
      "additionalContracts": [],
      "isFixedGasLimit": false
    },
    {
      "hash": null,
      "transactionType": "CALL",
      "contractName": null,
      "contractAddress": "0x0a68efc847b8c310616ef408df362e00e5341c84",
      "function": "adminCreateProduct(uint256,string,string,uint256,uint256,string)",
      "arguments": [
        "1",
        "Cushion Foundation SPF50",
        "beauty",
        "480000000000000",
        "75",
        "ipfs://bafkreia7z7svnkmlipihl3z7drx55ftdd4yso725zy5b6eygsgbnlto2jy"
      ],
      "transaction": {
        "from": "0x32fe11d9900d63350016374be98ff37c3af75847",
        "to": "0x0a68efc847b8c310616ef408df362e00e5341c84",
        "gas": "0x68b0b",
        "value": "0x0",
        "input": "0xffb56e3e000000000000000000000000000000000000000000000000000000000000000100000000000000000000000000000000000000000000000000000000000000c000000000000000000000000000000000000000000000000000000000000001000000000000000000000000000000000000000000000000000001b48eb57e0000000000000000000000000000000000000000000000000000000000000000004b0000000000000000000000000000000000000000000000000000000000000140000000000000000000000000000000000000000000000000000000000000001843757368696f6e20466f756e646174696f6e2053504635300000000000000000000000000000000000000000000000000000000000000000000000000000000662656175747900000000000000000000000000000000000000000000000000000000000000000000000000000000000000000000000000000000000000000042697066733a2f2f6261666b72656961377a3773766e6b6d6c697069686c337a376472783535667464643479736f3732357a793562366579677367626e6c746f326a79000000000000000000000000000000000000000000000000000000000000",
        "nonce": "0xdf",
        "chainId": "0x13882"
      },
      "additionalContracts": [],
      "isFixedGasLimit": false
    }
  ],
  "receipts": [],
  "libraries": [],
  "pending": [],
  "returns": {},
  "timestamp": 1767271833,
  "chain": 80002,
  "commit": "aff47ed"
}