{
  "transactions": [
    {
      "hash": "0x6f15f473503b80334ee4efd534e4e3fb431f83a4e2ed4643a8c75f8483dccda7",
      "transactionType": "CALL",
      "contractName": null,
      "contractAddress": "0x04758ac6e7e0f6183bb1c824bfc0d306e7504ff0",
      "function": "adminCreateProduct(uint256,string,string,uint256,uint256,string)",
      "arguments": [
        "1",
        "Glow Serum Set",
        "beauty",
        "20000000000000",
        "100",
        "ipfs://bafkreibj6rhyrezamnij7akpignyg5jcndtcdp3q6zukf343fmhnyuhdwm"
      ],
      "transaction": {
        "from": "0x32fe11d9900d63350016374be98ff37c3af75847",
        "to": "0x04758ac6e7e0f6183bb1c824bfc0d306e7504ff0",
        "gas": "0x6e6a8",
        "value": "0x0",
        "input": "0xffb56e3e000000000000000000000000000000000000000000000000000000000000000100000000000000000000000000000000000000000000000000000000000000c00000000000000000000000000000000000000000000000000000000000000100000000000000000000000000000000000000000000000000000012309ce5400000000000000000000000000000000000000000000000000000000000000000640000000000000000000000000000000000000000000000000000000000000140000000000000000000000000000000000000000000000000000000000000000e476c6f7720536572756d20536574000000000000000000000000000000000000000000000000000000000000000000000000000000000000000000000000000662656175747900000000000000000000000000000000000000000000000000000000000000000000000000000000000000000000000000000000000000000042697066733a2f2f6261666b726569626a3672687972657a616d6e696a37616b7069676e7967356a636e64746364703371367a756b66333433666d686e79756864776d000000000000000000000000000000000000000000000000000000000000",
        "nonce": "0x4a",
        "chainId": "0x14a34"
      },
      "additionalContracts": [],
      "isFixedGasLimit": false
    },
    {
      "hash": "0x07674f49bcce292438ae523668706a3212898bfcd557130fead3d302169f1004",
      "transactionType": "CALL",
      "contractName": null,
      "contractAddress": "0x04758ac6e7e0f6183bb1c824bfc0d306e7504ff0",
      "function": "adminCreateProduct(uint256,string,string,uint256,uint256,string)",
      "arguments": [
        "1",
        "K-Beauty Sheet Mask Pack",
        "beauty",
        "10000000000000",
        "200",
        "ipfs://bafkreibyijs5qccd2w4fvtyga3x6cbovwcw7oukskx2qu264zpc7n6peuu"
      ],
      "transaction": {
        "from": "0x32fe11d9900d63350016374be98ff37c3af75847",
        "to": "0x04758ac6e7e0f6183bb1c824bfc0d306e7504ff0",
        "gas": "0x68b0b",
        "value": "0x0",
        "input": "0xffb56e3e000000000000000000000000000000000000000000000000000000000000000100000000000000000000000000000000000000000000000000000000000000c00000000000000000000000000000000000000000000000000000000000000100000000000000000000000000000000000000000000000000000009184e72a00000000000000000000000000000000000000000000000000000000000000000c8000000000000000000000000000000000000000000000000000000000000014000000000000000000000000000000000000000000000000000000000000000184b2d426561757479205368656574204d61736b205061636b0000000000000000000000000000000000000000000000000000000000000000000000000000000662656175747900000000000000000000000000000000000000000000000000000000000000000000000000000000000000000000000000000000000000000042697066733a2f2f6261666b7265696279696a73357163636432773466767479676133783663626f76776377376f756b736b783271753236347a7063376e3670657575000000000000000000000000000000000000000000000000000000000000",
        "nonce": "0x4b",
        "chainId": "0x14a34"
      },
      "additionalContracts": [],
      "isFixedGasLimit": false
    },
    {
      "hash": "0x5a047dd1a017b46832eec03a86bba700e8e051f8a556105b5c10a7d84a63836c",
      "transactionType": "CALL",
      "contractName": null,
      "contractAddress": "0x04758ac6e7e0f6183bb1c824bfc0d306e7504ff0",
      "function": "adminCreateProduct(uint256,string,string,uint256,uint256,string)",
      "arguments": [
        "1",
        "Cushion Foundation SPF50",
        "beauty",
        "15000000000000",
        "75",
        "ipfs://bafkreia7z7svnkmlipihl3z7drx55ftdd4yso725zy5b6eygsgbnlto2jy"
      ],
      "transaction": {
        "from": "0x32fe11d9900d63350016374be98ff37c3af75847",
        "to": "0x04758ac6e7e0f6183bb1c824bfc0d306e7504ff0",
        "gas": "0x68b0b",
        "value": "0x0",
        "input": "0xffb56e3e000000000000000000000000000000000000000000000000000000000000000100000000000000000000000000000000000000000000000000000000000000c0000000000000000000000000000000000000000000000000000000000000010000000000000000000000000000000000000000000000000000000da475abf000000000000000000000000000000000000000000000000000000000000000004b0000000000000000000000000000000000000000000000000000000000000140000000000000000000000000000000000000000000000000000000000000001843757368696f6e20466f756e646174696f6e2053504635300000000000000000000000000000000000000000000000000000000000000000000000000000000662656175747900000000000000000000000000000000000000000000000000000000000000000000000000000000000000000000000000000000000000000042697066733a2f2f6261666b72656961377a3773766e6b6d6c697069686c337a376472783535667464643479736f3732357a793562366579677367626e6c746f326a79000000000000000000000000000000000000000000000000000000000000",
        "nonce": "0x4c",
        "chainId": "0x14a34"
      },
      "additionalContracts": [],
      "isFixedGasLimit": false
    },
    {
      "hash": "0xf674d328fd51a4bda2150432037b8fc728d778e42100fcba2a3a0a4e2051b329",
      "transactionType": "CALL",
      "contractName": null,
      "contractAddress": "0x04758ac6e7e0f6183bb1c824bfc0d306e7504ff0",
      "function": "adminCreateProduct(uint256,string,string,uint256,uint256,string)",
      "arguments": [
        "2",
        "Oversized Korean Blazer",
        "fashion",
        "30000000000000",
        "50",
        "ipfs://bafkreielptqlaqfsrkxroneo5m2ehv5mvkh4ulbakncszdqpmskh677mve"
      ],
      "transaction": {
        "from": "0x32fe11d9900d63350016374be98ff37c3af75847",
        "to": "0x04758ac6e7e0f6183bb1c824bfc0d306e7504ff0",
        "gas": "0x6e74f",
        "value": "0x0",
        "input": "0xffb56e3e000000000000000000000000000000000000000000000000000000000000000200000000000000000000000000000000000000000000000000000000000000c0000000000000000000000000000000000000000000000000000000000000010000000000000000000000000000000000000000000000000000001b48eb57e0000000000000000000000000000000000000000000000000000000000000000032000000000000000000000000000000000000000000000000000000000000014000000000000000000000000000000000000000000000000000000000000000174f76657273697a6564204b6f7265616e20426c617a6572000000000000000000000000000000000000000000000000000000000000000000000000000000000766617368696f6e000000000000000000000000000000000000000000000000000000000000000000000000000000000000000000000000000000000000000042697066733a2f2f6261666b726569656c7074716c61716673726b78726f6e656f356d32656876356d766b6834756c62616b6e63737a6471706d736b683637376d7665000000000000000000000000000000000000000000000000000000000000",
        "nonce": "0x4d",
        "chainId": "0x14a34"
      },
      "additionalContracts": [],
      "isFixedGasLimit": false
    },
    {
      "hash": "0x24d4581c1df2c538cc944f4d5298690247c35d97109dafbc12eca37ff323b8f4",
      "transactionType": "CALL",
      "contractName": null,
      "contractAddress": "0x04758ac6e7e0f6183bb1c824bfc0d306e7504ff0",
      "function": "adminCreateProduct(uint256,string,string,uint256,uint256,string)",
      "arguments": [
        "2",
        "Wide Leg Pants",
        "fashion",
        "20000000000000",
        "80",
        "ipfs://bafkreihmhbrhkrwymuitpj652bcxk7weyk2xm4wgrldw53sjwyl3o6yiqq"
      ],
      "transaction": {
        "from": "0x32fe11d9900d63350016374be98ff37c3af75847",
        "to": "0x04758ac6e7e0f6183bb1c824bfc0d306e7504ff0",
        "gas": "0x68a76",
        "value": "0x0",
        "input": "0xffb56e3e000000000000000000000000000000000000000000000000000000000000000200000000000000000000000000000000000000000000000000000000000000c00000000000000000000000000000000000000000000000000000000000000100000000000000000000000000000000000000000000000000000012309ce5400000000000000000000000000000000000000000000000000000000000000000500000000000000000000000000000000000000000000000000000000000000140000000000000000000000000000000000000000000000000000000000000000e57696465204c65672050616e7473000000000000000000000000000000000000000000000000000000000000000000000000000000000000000000000000000766617368696f6e000000000000000000000000000000000000000000000000000000000000000000000000000000000000000000000000000000000000000042697066733a2f2f6261666b726569686d686272686b7277796d756974706a3635326263786b377765796b32786d347767726c64773533736a77796c336f3679697171000000000000000000000000000000000000000000000000000000000000",
        "nonce": "0x4e",
        "chainId": "0x14a34"
      },
      "additionalContracts": [],
      "isFixedGasLimit": false
    },
    {
      "hash": "0x9d5d890534d695702c8382654673e52fc71196104b39eefb7a71e1eed80481f2",
      "transactionType": "CALL",
      "contractName": null,
      "contractAddress": "0x04758ac6e7e0f6183bb1c824bfc0d306e7504ff0",
      "function": "adminCreateProduct(uint256,string,string,uint256,uint256,string)",
      "arguments": [
        "2",
        "Korean Style Bucket Hat",
        "fashion",
        "10000000000000",
        "150",
        "ipfs://bafkreidx2uoxj7yqj2dejs5slphrz7ghigue2tkqii73mwrrqczsa3fckm"
      ],
      "transaction": {
        "from": "0x32fe11d9900d63350016374be98ff37c3af75847",
        "to": "0x04758ac6e7e0f6183bb1c824bfc0d306e7504ff0",
        "gas": "0x68b0b",
        "value": "0x0",
        "input": "0xffb56e3e000000000000000000000000000000000000000000000000000000000000000200000000000000000000000000000000000000000000000000000000000000c00000000000000000000000000000000000000000000000000000000000000100000000000000000000000000000000000000000000000000000009184e72a0000000000000000000000000000000000000000000000000000000000000000096000000000000000000000000000000000000000000000000000000000000014000000000000000000000000000000000000000000000000000000000000000174b6f7265616e205374796c65204275636b657420486174000000000000000000000000000000000000000000000000000000000000000000000000000000000766617368696f6e000000000000000000000000000000000000000000000000000000000000000000000000000000000000000000000000000000000000000042697066733a2f2f6261666b726569647832756f786a3779716a3264656a7335736c7068727a3767686967756532746b71696937336d77727271637a73613366636b6d000000000000000000000000000000000000000000000000000000000000",
        "nonce": "0x4f",
        "chainId": "0x14a34"
      },
      "additionalContracts": [],
      "isFixedGasLimit": false
    },
    {
      "hash": "0x60aff724887b6c80de1b78ad270d0180363707a0e4bcfe1d4d6bb4c76a1f1a08",
      "transactionType": "CALL",
      "contractName": null,
      "contractAddress": "0x04758ac6e7e0f6183bb1c824bfc0d306e7504ff0",
      "function": "adminCreateProduct(uint256,string,string,uint256,uint256,string)",
      "arguments": [
        "3",
        "Premium Kimchi Set",
        "food",
        "18000000000000",
        "60",
        "ipfs://bafkreig6dauzza5juhegclgouiga3nh67uxpg64gv5ceiuobqsmgj3xpzu"
      ],
      "transaction": {
        "from": "0x32fe11d9900d63350016374be98ff37c3af75847",
        "to": "0x04758ac6e7e0f6183bb1c824bfc0d306e7504ff0",
        "gas": "0x6e6ca",
        "value": "0x0",
        "input": "0xffb56e3e000000000000000000000000000000000000000000000000000000000000000300000000000000000000000000000000000000000000000000000000000000c000000000000000000000000000000000000000000000000000000000000001000000000000000000000000000000000000000000000000000000105ef39b2000000000000000000000000000000000000000000000000000000000000000003c000000000000000000000000000000000000000000000000000000000000014000000000000000000000000000000000000000000000000000000000000000125072656d69756d204b696d6368692053657400000000000000000000000000000000000000000000000000000000000000000000000000000000000000000004666f6f64000000000000000000000000000000000000000000000000000000000000000000000000000000000000000000000000000000000000000000000042697066733a2f2f6261666b72656967366461757a7a61356a75686567636c676f75696761336e683637757870673634677635636569756f6271736d676a3378707a75000000000000000000000000000000000000000000000000000000000000",
        "nonce": "0x50",
        "chainId": "0x14a34"
      },
      "additionalContracts": [],
      "isFixedGasLimit": false
    },
    {
      "hash": "0x4514f3c31ad31891463f77eda01e00f4572182d82f7985b7b6e5d0c25e48ce5c",
      "transactionType": "CALL",
      "contractName": null,
      "contractAddress": "0x04758ac6e7e0f6183bb1c824bfc0d306e7504ff0",
      "function": "adminCreateProduct(uint256,string,string,uint256,uint256,string)",
      "arguments": [
        "3",
        "Korean Snack Box",
        "food",
        "12000000000000",
        "40",
        "ipfs://bafkreifil4vng7bmsndmk2kb4u6hwqzl232xs6xk4hs2ohz6yqtd5keae4"
      ],
      "transaction": {
        "from": "0x32fe11d9900d63350016374be98ff37c3af75847",
        "to": "0x04758ac6e7e0f6183bb1c824bfc0d306e7504ff0",
        "gas": "0x68a65",
        "value": "0x0",
        "input": "0xffb56e3e000000000000000000000000000000000000000000000000000000000000000300000000000000000000000000000000000000000000000000000000000000c0000000000000000000000000000000000000000000000000000000000000010000000000000000000000000000000000000000000000000000000ae9f7bcc0000000000000000000000000000000000000000000000000000000000000000028000000000000000000000000000000000000000000000000000000000000014000000000000000000000000000000000000000000000000000000000000000104b6f7265616e20536e61636b20426f78000000000000000000000000000000000000000000000000000000000000000000000000000000000000000000000004666f6f64000000000000000000000000000000000000000000000000000000000000000000000000000000000000000000000000000000000000000000000042697066733a2f2f6261666b72656966696c34766e6737626d736e646d6b326b623475366877717a6c323332787336786b346873326f687a3679717464356b65616534000000000000000000000000000000000000000000000000000000000000",
        "nonce": "0x51",
        "chainId": "0x14a34"
      },
      "additionalContracts": [],
      "isFixedGasLimit": false
    },
    {
      "hash": "0xcaab11a4bfe24c2b391fa274cc776b6aa9228183a5aec035624541bc866a7d9f",
      "transactionType": "CALL",
      "contractName": null,
      "contractAddress": "0x04758ac6e7e0f6183bb1c824bfc0d306e7504ff0",
      "function": "adminCreateProduct(uint256,string,string,uint256,uint256,string)",
      "arguments": [
        "3",
        "Gochujang Sauce Set",
        "food",
        "10000000000000",
        "90",
        "ipfs://bafkreia5wyt7rpoybba6bfwejp3mnxqzpnqsdxuqz3gulagpnebyec35yu"
      ],
      "transaction": {
        "from": "0x32fe11d9900d63350016374be98ff37c3af75847",
        "to": "0x04758ac6e7e0f6183bb1c824bfc0d306e7504ff0",
        "gas": "0x68a97",
        "value": "0x0",
        "input": "0xffb56e3e000000000000000000000000000000000000000000000000000000000000000300000000000000000000000000000000000000000000000000000000000000c00000000000000000000000000000000000000000000000000000000000000100000000000000000000000000000000000000000000000000000009184e72a000000000000000000000000000000000000000000000000000000000000000005a00000000000000000000000000000000000000000000000000000000000001400000000000000000000000000000000000000000000000000000000000000013476f6368756a616e6720536175636520536574000000000000000000000000000000000000000000000000000000000000000000000000000000000000000004666f6f64000000000000000000000000000000000000000000000000000000000000000000000000000000000000000000000000000000000000000000000042697066733a2f2f6261666b72656961357779743772706f7962626136626677656a70336d6e78717a706e7173647875717a3367756c6167706e656279656333357975000000000000000000000000000000000000000000000000000000000000",
        "nonce": "0x52",
        "chainId": "0x14a34"
      },
      "additionalContracts": [],
      "isFixedGasLimit": false
    },
    {
      "hash": "0x4f08c796ce618a15f58e5c6674376987aa0d4ff0f45b2f8de42ce60e1bf457d8",
      "transactionType": "CALL",
      "contractName": null,
      "contractAddress": "0x04758ac6e7e0f6183bb1c824bfc0d306e7504ff0",
      "function": "adminCreateProduct(uint256,string,string,uint256,uint256,string)",
      "arguments": [
        "4",
        "Wireless Earbuds Pro",
        "electronics",
        "40000000000000",
        "35",
        "ipfs://bafkreiec7dfgvlx2fgihyvzm4bly77466sdsz5ancnbrr7mgsf76ugodha"
      ],
      "transaction": {
        "from": "0x32fe11d9900d63350016374be98ff37c3af75847",
        "to": "0x04758ac6e7e0f6183bb1c824bfc0d306e7504ff0",
        "gas": "0x6e75e",
        "value": "0x0",
        "input": "0xffb56e3e000000000000000000000000000000000000000000000000000000000000000400000000000000000000000000000000000000000000000000000000000000c000000000000000000000000000000000000000000000000000000000000001000000000000000000000000000000000000000000000000000000246139ca8000000000000000000000000000000000000000000000000000000000000000002300000000000000000000000000000000000000000000000000000000000001400000000000000000000000000000000000000000000000000000000000000014576972656c65737320456172627564732050726f000000000000000000000000000000000000000000000000000000000000000000000000000000000000000b656c656374726f6e6963730000000000000000000000000000000000000000000000000000000000000000000000000000000000000000000000000000000042697066733a2f2f6261666b726569656337646667766c78326667696879767a6d34626c7937373436367364737a35616e636e627272376d677366373675676f646861000000000000000000000000000000000000000000000000000000000000",
        "nonce": "0x53",
        "chainId": "0x14a34"
      },
      "additionalContracts": [],
      "isFixedGasLimit": false
    },
    {
      "hash": "0x7959f03f10fe05bd16c226c0681898cfbcaed3649d9e1070caa216aec054db79",
      "transactionType": "CALL",
      "contractName": null,
      "contractAddress": "0x04758ac6e7e0f6183bb1c824bfc0d306e7504ff0",
      "function": "adminCreateProduct(uint256,string,string,uint256,uint256,string)",
      "arguments": [
        "4",
        "Smart Watch Band Pack",
        "electronics",
        "15000000000000",
        "120",
        "ipfs://bafkreigpjjqcwecacwbpgdrfatorsz6lxskizj54fb4xusvprkcpcexur4"
      ],
      "transaction": {
        "from": "0x32fe11d9900d63350016374be98ff37c3af75847",
        "to": "0x04758ac6e7e0f6183bb1c824bfc0d306e7504ff0",
        "gas": "0x68b2c",
        "value": "0x0",
        "input": "0xffb56e3e000000000000000000000000000000000000000000000000000000000000000400000000000000000000000000000000000000000000000000000000000000c0000000000000000000000000000000000000000000000000000000000000010000000000000000000000000000000000000000000000000000000da475abf000000000000000000000000000000000000000000000000000000000000000007800000000000000000000000000000000000000000000000000000000000001400000000000000000000000000000000000000000000000000000000000000015536d6172742057617463682042616e64205061636b0000000000000000000000000000000000000000000000000000000000000000000000000000000000000b656c656374726f6e6963730000000000000000000000000000000000000000000000000000000000000000000000000000000000000000000000000000000042697066733a2f2f6261666b72656967706a6a716377656361637762706764726661746f72737a366c78736b697a6a35346662347875737670726b6370636578757234000000000000000000000000000000000000000000000000000000000000",
        "nonce": "0x54",
        "chainId": "0x14a34"
      },
      "additionalContracts": [],
      "isFixedGasLimit": false
    },
    {
      "hash": "0x8f057e3e8edc43133f3adbebb19624517c5e8569ded039ed0c9482471dd43fd7",
      "transactionType": "CALL",
      "contractName": null,
      "contractAddress": "0x04758ac6e7e0f6183bb1c824bfc0d306e7504ff0",
      "function": "adminCreateProduct(uint256,string,string,uint256,uint256,string)",
      "arguments": [
        "4",
        "Portable Charger 20000mAh",
        "electronics",
        "25000000000000",
        "90",
        "ipfs://bafkreidnbudosf2mali4lm54oshiqkt2okc2ppcvm6fu7ahge2rgzpnsvm"
      ],
      "transaction": {
        "from": "0x32fe11d9900d63350016374be98ff37c3af75847",
        "to": "0x04758ac6e7e0f6183bb1c824bfc0d306e7504ff0",
        "gas": "0x68b6e",
        "value": "0x0",
        "input": "0xffb56e3e000000000000000000000000000000000000000000000000000000000000000400000000000000000000000000000000000000000000000000000000000000c00000000000000000000000000000000000000000000000000000000000000100000000000000000000000000000000000000000000000000000016bcc41e9000000000000000000000000000000000000000000000000000000000000000005a00000000000000000000000000000000000000000000000000000000000001400000000000000000000000000000000000000000000000000000000000000019506f727461626c6520436861726765722032303030306d416800000000000000000000000000000000000000000000000000000000000000000000000000000b656c656374726f6e6963730000000000000000000000000000000000000000000000000000000000000000000000000000000000000000000000000000000042697066733a2f2f6261666b726569646e6275646f7366326d616c69346c6d35346f736869716b74326f6b6332707063766d36667537616867653272677a706e73766d000000000000000000000000000000000000000000000000000000000000",
        "nonce": "0x55",
        "chainId": "0x14a34"
      },
      "additionalContracts": [],
      "isFixedGasLimit": false
    },
    {
      "hash": "0x34c3eb2ff4dbfcde3a7aeeba774f73e0cbb07f899dedec977fe800f1a89f43c4",
      "transactionType": "CALL",
      "contractName": null,
      "contractAddress": "0x04758ac6e7e0f6183bb1c824bfc0d306e7504ff0",
      "function": "adminCreateProduct(uint256,string,string,uint256,uint256,string)",
      "arguments": [
        "5",
        "Korean Ceramic Tea Set",
        "home",
        "30000000000000",
        "25",
        "ipfs://bafkreic2mn5uolkc7eomyyx44cfkxfdegvl2r2yalq434bm53iqgn5prtm"
      ],
      "transaction": {
        "from": "0x32fe11d9900d63350016374be98ff37c3af75847",
        "to": "0x04758ac6e7e0f6183bb1c824bfc0d306e7504ff0",
        "gas": "0x6e70c",
        "value": "0x0",
        "input": "0xffb56e3e000000000000000000000000000000000000000000000000000000000000000500000000000000000000000000000000000000000000000000000000000000c0000000000000000000000000000000000000000000000000000000000000010000000000000000000000000000000000000000000000000000001b48eb57e0000000000000000000000000000000000000000000000000000000000000000019000000000000000000000000000000000000000000000000000000000000014000000000000000000000000000000000000000000000000000000000000000164b6f7265616e20436572616d69632054656120536574000000000000000000000000000000000000000000000000000000000000000000000000000000000004686f6d65000000000000000000000000000000000000000000000000000000000000000000000000000000000000000000000000000000000000000000000042697066733a2f2f6261666b72656963326d6e35756f6c6b6337656f6d797978343463666b7866646567766c32723279616c71343334626d35336971676e357072746d000000000000000000000000000000000000000000000000000000000000",
        "nonce": "0x56",
        "chainId": "0x14a34"
      },
      "additionalContracts": [],
      "isFixedGasLimit": false
    },
    {
      "hash": "0xba82216e2720cae4b54a3edfbf131114da9022a1defbb00ec31d3d8803bca012",
      "transactionType": "CALL",
      "contractName": null,
      "contractAddress": "0x04758ac6e7e0f6183bb1c824bfc0d306e7504ff0",
      "function": "adminCreateProduct(uint256,string,string,uint256,uint256,string)",
      "arguments": [
        "5",
        "Hanji Paper Lamp",
        "home",
        "20000000000000",
        "30",
        "ipfs://bafkreiajz7ufea2ubu5ypd6av2iygwckv43rw7sp7jvhlrwc7cnp52gns4"
      ],
      "transaction": {
        "from": "0x32fe11d9900d63350016374be98ff37c3af75847",
        "to": "0x04758ac6e7e0f6183bb1c824bfc0d306e7504ff0",
        "gas": "0x68a65",
        "value": "0x0",
        "input": "0xffb56e3e000000000000000000000000000000000000000000000000000000000000000500000000000000000000000000000000000000000000000000000000000000c00000000000000000000000000000000000000000000000000000000000000100000000000000000000000000000000000000000000000000000012309ce54000000000000000000000000000000000000000000000000000000000000000001e0000000000000000000000000000000000000000000000000000000000000140000000000000000000000000000000000000000000000000000000000000001048616e6a69205061706572204c616d70000000000000000000000000000000000000000000000000000000000000000000000000000000000000000000000004686f6d65000000000000000000000000000000000000000000000000000000000000000000000000000000000000000000000000000000000000000000000042697066733a2f2f6261666b726569616a7a377566656132756275357970643661763269796777636b7634337277377370376a76686c72776337636e703532676e7334000000000000000000000000000000000000000000000000000000000000",
        "nonce": "0x57",
        "chainId": "0x14a34"
      },
      "additionalContracts": [],
      "isFixedGasLimit": false
    },
    {
      "hash": "0x6c18a676c99277bfe1e31018faf3174fb29c198d490daab353d0964fc0520ec8",
      "transactionType": "CALL",
      "contractName": null,
      "contractAddress": "0x04758ac6e7e0f6183bb1c824bfc0d306e7504ff0",
      "function": "adminCreateProduct(uint256,string,string,uint256,uint256,string)",
      "arguments": [
        "5",
        "Bamboo Organizer Set",
        "home",
        "12000000000000",
        "65",
        "ipfs://bafkreid5li2cfh3ydjp6yp54aokt36nabbh4zc6lncg3egupxxct7uxhcy"
      ],
      "transaction": {
        "from": "0x32fe11d9900d63350016374be98ff37c3af75847",
        "to": "0x04758ac6e7e0f6183bb1c824bfc0d306e7504ff0",
        "gas": "0x68aa7",
        "value": "0x0",
        "input": "0xffb56e3e000000000000000000000000000000000000000000000000000000000000000500000000000000000000000000000000000000000000000000000000000000c0000000000000000000000000000000000000000000000000000000000000010000000000000000000000000000000000000000000000000000000ae9f7bcc00000000000000000000000000000000000000000000000000000000000000000410000000000000000000000000000000000000000000000000000000000000140000000000000000000000000000000000000000000000000000000000000001442616d626f6f204f7267616e697a6572205365740000000000000000000000000000000000000000000000000000000000000000000000000000000000000004686f6d65000000000000000000000000000000000000000000000000000000000000000000000000000000000000000000000000000000000000000000000042697066733a2f2f6261666b72656964356c69326366683379646a703679703534616f6b7433366e61626268347a63366c6e6367336567757078786374377578686379000000000000000000000000000000000000000000000000000000000000",
        "nonce": "0x58",
        "chainId": "0x14a34"
      },
      "additionalContracts": [],
      "isFixedGasLimit": false
    }
  ],
  "receipts": [
    {
      "status": "0x1",
      "cumulativeGasUsed": "0x126280",
      "logs": [
        {
          "address": "0x04758ac6e7e0f6183bb1c824bfc0d306e7504ff0",
          "topics": [
            "0x852115f98c3c55ed6b147d98c2968942dab6d7d5d496bfba106c426c2eea62f5",
            "0x0000000000000000000000000000000000000000000000000000000000000001",
            "0x0000000000000000000000000000000000000000000000000000000000000001"
          ],
          "data": "0x0000000000000000000000000000000000000000000000000000000000000040000000000000000000000000000000000000000000000000000012309ce54000000000000000000000000000000000000000000000000000000000000000000e476c6f7720536572756d20536574000000000000000000000000000000000000",
          "blockHash": "0x11c64374fb6f0200dd6f6d70e9794159ab73191428d68217e4d55a002642b53c",
          "blockNumber": "0x22188d5",
          "blockTimestamp": "0x6956708a",
          "transactionHash": "0x6f15f473503b80334ee4efd534e4e3fb431f83a4e2ed4643a8c75f8483dccda7",
          "transactionIndex": "0x9",
          "logIndex": "0x18",
          "removed": false
        }
      ],
      "logsBloom": "0x00000000000000000000000000000000000000000000020000000000000000000000000000000000000000200000000000000000000000000000000000040000000000000000040000000000000000000000000000040000000000000000000000000000000000000000000000000000000000000001000000000000000800000000000000000000000000000000000000000000000000000000000000000000000000000000000000000000000000000000000000000000000000000000000000000000000000000000000000000000000000000000000000000002000040000000000000000000000000000000000000000000000000000000000000000000",
      "type": "0x2",
      "transactionHash": "0x6f15f473503b80334ee4efd534e4e3fb431f83a4e2ed4643a8c75f8483dccda7",
      "transactionIndex": "0x9",
      "blockHash": "0x11c64374fb6f0200dd6f6d70e9794159ab73191428d68217e4d55a002642b53c",
      "blockNumber": "0x22188d5",
      "gasUsed": "0x4ff08",
      "effectiveGasPrice": "0x124f80",
      "blobGasUsed": "0xe3e8",
      "from": "0x32fe11d9900d63350016374be98ff37c3af75847",
      "to": "0x04758ac6e7e0f6183bb1c824bfc0d306e7504ff0",
      "contractAddress": null,
      "daFootprintGasScalar": "0x138",
      "l1BaseFeeScalar": "0x44d",
      "l1BlobBaseFee": "0x4e",
      "l1BlobBaseFeeScalar": "0xa118b",
      "l1Fee": "0x3997",
      "l1GasPrice": "0x607",
      "l1GasUsed": "0xbb7"
    },
    {
      "status": "0x1",
      "cumulativeGasUsed": "0x6ff8e",
      "logs": [
        {
          "address": "0x04758ac6e7e0f6183bb1c824bfc0d306e7504ff0",
          "topics": [
            "0x852115f98c3c55ed6b147d98c2968942dab6d7d5d496bfba106c426c2eea62f5",
            "0x0000000000000000000000000000000000000000000000000000000000000002",
            "0x0000000000000000000000000000000000000000000000000000000000000001"
          ],
          "data": "0x0000000000000000000000000000000000000000000000000000000000000040000000000000000000000000000000000000000000000000000009184e72a00000000000000000000000000000000000000000000000000000000000000000184b2d426561757479205368656574204d61736b205061636b0000000000000000",
          "blockHash": "0xcf7de274ce432fb481e1de59cdf96d9a289fe0a24e839730239a1c252ddf7b88",
          "blockNumber": "0x22188d6",
          "blockTimestamp": "0x6956708c",
          "transactionHash": "0x07674f49bcce292438ae523668706a3212898bfcd557130fead3d302169f1004",
          "transactionIndex": "0x2",
          "logIndex": "0x5",
          "removed": false
        }
      ],
      "logsBloom": "0x04000000000000000000000000000000000000000000020000000000000000000000000000000000000000200000000000000000000000000000000000040000000000000000040000000000000000000000000000040000000000000000000000000000000000000000000000000000000000000001000000000000000800000000000000000000000000000000000000000000000000000000000000000000000000000000000000000100000000000000000000000000000000000000000000000000000000000000000000000000000000000000000000000002000040000000000000000000000000000000000000000000008000000000000000000000",
      "type": "0x2",
      "transactionHash": "0x07674f49bcce292438ae523668706a3212898bfcd557130fead3d302169f1004",
      "transactionIndex": "0x2",
      "blockHash": "0xcf7de274ce432fb481e1de59cdf96d9a289fe0a24e839730239a1c252ddf7b88",
      "blockNumber": "0x22188d6",
      "gasUsed": "0x4bcb4",
      "effectiveGasPrice": "0x124f80",
      "blobGasUsed": "0xeee0",
      "from": "0x32fe11d9900d63350016374be98ff37c3af75847",
      "to": "0x04758ac6e7e0f6183bb1c824bfc0d306e7504ff0",
      "contractAddress": null,
      "daFootprintGasScalar": "0x138",
      "l1BaseFeeScalar": "0x44d",
      "l1BlobBaseFee": "0x4e",
      "l1BlobBaseFeeScalar": "0xa118b",
      "l1Fee": "0x2bf8",
      "l1GasPrice": "0x607",
      "l1GasUsed": "0xc4a"
    },
    {
      "status": "0x1",
      "cumulativeGasUsed": "0xbbc42",
      "logs": [
        {
          "address": "0x04758ac6e7e0f6183bb1c824bfc0d306e7504ff0",
          "topics": [
            "0x852115f98c3c55ed6b147d98c2968942dab6d7d5d496bfba106c426c2eea62f5",
            "0x0000000000000000000000000000000000000000000000000000000000000003",
            "0x0000000000000000000000000000000000000000000000000000000000000001"
          ],
          "data": "0x000000000000000000000000000000000000000000000000000000000000004000000000000000000000000000000000000000000000000000000da475abf000000000000000000000000000000000000000000000000000000000000000001843757368696f6e20466f756e646174696f6e2053504635300000000000000000",
          "blockHash": "0xcf7de274ce432fb481e1de59cdf96d9a289fe0a24e839730239a1c252ddf7b88",
          "blockNumber": "0x22188d6",
          "blockTimestamp": "0x6956708c",
          "transactionHash": "0x5a047dd1a017b46832eec03a86bba700e8e051f8a556105b5c10a7d84a63836c",
          "transactionIndex": "0x3",
          "logIndex": "0x6",
          "removed": false
        }
      ],
      "logsBloom": "0x00000000000000000000000000000000000000000000020000000000000000000000000000000000000000200000000000000000020000000000000000040000000000000000040000000000000000000000000000040000000000000000000000000000000000000000000000000000000000000001000000000000000800000000000000000000000000000000000000000000000000000000000000000000000000000000000000000000000000000000000000800000000000000000400000000000000000000000000000000000000000000000000000000002000040000000000000000000000000000000000000000000000000000000000000000000",
      "type": "0x2",
      "transactionHash": "0x5a047dd1a017b46832eec03a86bba700e8e051f8a556105b5c10a7d84a63836c",
      "transactionIndex": "0x3",
      "blockHash": "0xcf7de274ce432fb481e1de59cdf96d9a289fe0a24e839730239a1c252ddf7b88",
      "blockNumber": "0x22188d6",
      "gasUsed": "0x4bcb4",
      "effectiveGasPrice": "0x124f80",
      "blobGasUsed": "0xeda8",
      "from": "0x32fe11d9900d63350016374be98ff37c3af75847",
      "to": "0x04758ac6e7e0f6183bb1c824bfc0d306e7504ff0",
      "contractAddress": null,
      "daFootprintGasScalar": "0x138",
      "l1BaseFeeScalar": "0x44d",
      "l1BlobBaseFee": "0x4e",
      "l1BlobBaseFeeScalar": "0xa118b",
      "l1Fee": "0x2bf8",
      "l1GasPrice": "0x607",
      "l1GasUsed": "0xc3d"
    },
    {
      "status": "0x1",
      "cumulativeGasUsed": "0x10bbc2",
      "logs": [
        {
          "address": "0x04758ac6e7e0f6183bb1c824bfc0d306e7504ff0",
          "topics": [
            "0x852115f98c3c55ed6b147d98c2968942dab6d7d5d496bfba106c426c2eea62f5",
            "0x0000000000000000000000000000000000000000000000000000000000000004",
            "0x0000000000000000000000000000000000000000000000000000000000000002"
          ],
          "data": "0x000000000000000000000000000000000000000000000000000000000000004000000000000000000000000000000000000000000000000000001b48eb57e00000000000000000000000000000000000000000000000000000000000000000174f76657273697a6564204b6f7265616e20426c617a6572000000000000000000",
          "blockHash": "0xcf7de274ce432fb481e1de59cdf96d9a289fe0a24e839730239a1c252ddf7b88",
          "blockNumber": "0x22188d6",
          "blockTimestamp": "0x6956708c",
          "transactionHash": "0xf674d328fd51a4bda2150432037b8fc728d778e42100fcba2a3a0a4e2051b329",
          "transactionIndex": "0x4",
          "logIndex": "0x7",
          "removed": false
        }
      ],
      "logsBloom": "0x04000000000000000000000000000000000000000000020000000000000000000000000000000000000000200000000000000000000000000000000000000000000000000000040000000000000000000000000000000000000000000000000008000000000000000000000000000000000000000001000000000000000800000000000000000000000000000000000000000000000000000000000000000000000000000000000000000100000000000000000000000000002000000000000000000000000000000000000000000000000000008000000000000002000000000000000000000000000000000000000000000000008000000000000000000000",
      "type": "0x2",
      "transactionHash": "0xf674d328fd51a4bda2150432037b8fc728d778e42100fcba2a3a0a4e2051b329",
      "transactionIndex": "0x4",
      "blockHash": "0xcf7de274ce432fb481e1de59cdf96d9a289fe0a24e839730239a1c252ddf7b88",
      "blockNumber": "0x22188d6",
      "gasUsed": "0x4ff80",
      "effectiveGasPrice": "0x124f80",
      "blobGasUsed": "0xf3c0",
      "from": "0x32fe11d9900d63350016374be98ff37c3af75847",
      "to": "0x04758ac6e7e0f6183bb1c824bfc0d306e7504ff0",
      "contractAddress": null,
      "daFootprintGasScalar": "0x138",
      "l1BaseFeeScalar": "0x44d",
      "l1BlobBaseFee": "0x4e",
      "l1BlobBaseFeeScalar": "0xa118b",
      "l1Fee": "0x2bf8",
      "l1GasPrice": "0x607",
      "l1GasUsed": "0xc8d"
    },
    {
      "status": "0x1",
      "cumulativeGasUsed": "0x15780a",
      "logs": [
        {
          "address": "0x04758ac6e7e0f6183bb1c824bfc0d306e7504ff0",
          "topics": [
            "0x852115f98c3c55ed6b147d98c2968942dab6d7d5d496bfba106c426c2eea62f5",
            "0x0000000000000000000000000000000000000000000000000000000000000005",
            "0x0000000000000000000000000000000000000000000000000000000000000002"
          ],
          "data": "0x0000000000000000000000000000000000000000000000000000000000000040000000000000000000000000000000000000000000000000000012309ce54000000000000000000000000000000000000000000000000000000000000000000e57696465204c65672050616e7473000000000000000000000000000000000000",
          "blockHash": "0xcf7de274ce432fb481e1de59cdf96d9a289fe0a24e839730239a1c252ddf7b88",
          "blockNumber": "0x22188d6",
          "blockTimestamp": "0x6956708c",
          "transactionHash": "0x24d4581c1df2c538cc944f4d5298690247c35d97109dafbc12eca37ff323b8f4",
          "transactionIndex": "0x5",
          "logIndex": "0x8",
          "removed": false
        }
      ],
      "logsBloom": "0x04000000000000000000000000000000000000000000020000000000000000000000000000000000000000200000000000000000000000000000000000000000000010000000040000000000000000000000000000000000000000000000000000000000000000000000000000000000000000000001000000000000000800000000000000000000000000000000001000000800000000000000000000000000000000000000000000000100000000000000000000000000000000000000000000000000000000000000000000000000000000000000000000000002000000000000000000000000000000000000000000000000008000000000000000000000",
      "type": "0x2",
      "transactionHash": "0x24d4581c1df2c538cc944f4d5298690247c35d97109dafbc12eca37ff323b8f4",
      "transactionIndex": "0x5",
      "blockHash": "0xcf7de274ce432fb481e1de59cdf96d9a289fe0a24e839730239a1c252ddf7b88",
      "blockNumber": "0x22188d6",
      "gasUsed": "0x4bc48",
      "effectiveGasPrice": "0x124f80",
      "blobGasUsed": "0xe658",
      "from": "0x32fe11d9900d63350016374be98ff37c3af75847",
      "to": "0x04758ac6e7e0f6183bb1c824bfc0d306e7504ff0",
      "contractAddress": null,
      "daFootprintGasScalar": "0x138",
      "l1BaseFeeScalar": "0x44d",
      "l1BlobBaseFee": "0x4e",
      "l1BlobBaseFeeScalar": "0xa118b",
      "l1Fee": "0x2bf8",
      "l1GasPrice": "0x607",
      "l1GasUsed": "0xbdf"
    },
    {
      "status": "0x1",
      "cumulativeGasUsed": "0x1a34be",
      "logs": [
        {
          "address": "0x04758ac6e7e0f6183bb1c824bfc0d306e7504ff0",
          "topics": [
            "0x852115f98c3c55ed6b147d98c2968942dab6d7d5d496bfba106c426c2eea62f5",
            "0x0000000000000000000000000000000000000000000000000000000000000006",
            "0x0000000000000000000000000000000000000000000000000000000000000002"
          ],
          "data": "0x0000000000000000000000000000000000000000000000000000000000000040000000000000000000000000000000000000000000000000000009184e72a00000000000000000000000000000000000000000000000000000000000000000174b6f7265616e205374796c65204275636b657420486174000000000000000000",
          "blockHash": "0xcf7de274ce432fb481e1de59cdf96d9a289fe0a24e839730239a1c252ddf7b88",
          "blockNumber": "0x22188d6",
          "blockTimestamp": "0x6956708c",
          "transactionHash": "0x9d5d890534d695702c8382654673e52fc71196104b39eefb7a71e1eed80481f2",
          "transactionIndex": "0x6",
          "logIndex": "0x9",
          "removed": false
        }
      ],
      "logsBloom": "0x04000000000000000000000000000000000000000000020000000000000000000000000000000000000000200000000000000000000400000000000000000000000000000000040000000000000000000000000000000000000000000000000000000000000000000000000000000000000000000001000000000000000800000000000400000000000000000000000000000000000000000000000000000000000000000000000000000100000000000000000000000000000000080000000000000000000000000000000000000000000000000000000000000002000000000000000000000000000000000000000000000000008000000000000000000000",
      "type": "0x2",
      "transactionHash": "0x9d5d890534d695702c8382654673e52fc71196104b39eefb7a71e1eed80481f2",
      "transactionIndex": "0x6",
      "blockHash": "0xcf7de274ce432fb481e1de59cdf96d9a289fe0a24e839730239a1c252ddf7b88",
      "blockNumber": "0x22188d6",
      "gasUsed": "0x4bcb4",
      "effectiveGasPrice": "0x124f80",
      "blobGasUsed": "0xf3c0",
      "from": "0x32fe11d9900d63350016374be98ff37c3af75847",
      "to": "0x04758ac6e7e0f6183bb1c824bfc0d306e7504ff0",
      "contractAddress": null,
      "daFootprintGasScalar": "0x138",
      "l1BaseFeeScalar": "0x44d",
      "l1BlobBaseFee": "0x4e",
      "l1BlobBaseFeeScalar": "0xa118b",
      "l1Fee": "0x2bf8",
      "l1GasPrice": "0x607",
      "l1GasUsed": "0xc8d"
    },
    {
      "status": "0x1",
      "cumulativeGasUsed": "0x1f33de",
      "logs": [
        {
          "address": "0x04758ac6e7e0f6183bb1c824bfc0d306e7504ff0",
          "topics": [
            "0x852115f98c3c55ed6b147d98c2968942dab6d7d5d496bfba106c426c2eea62f5",
            "0x0000000000000000000000000000000000000000000000000000000000000007",
            "0x0000000000000000000000000000000000000000000000000000000000000003"
          ],
          "data": "0x00000000000000000000000000000000000000000000000000000000000000400000000000000000000000000000000000000000000000000000105ef39b200000000000000000000000000000000000000000000000000000000000000000125072656d69756d204b696d636869205365740000000000000000000000000000",
          "blockHash": "0xcf7de274ce432fb481e1de59cdf96d9a289fe0a24e839730239a1c252ddf7b88",
          "blockNumber": "0x22188d6",
          "blockTimestamp": "0x6956708c",
          "transactionHash": "0x60aff724887b6c80de1b78ad270d0180363707a0e4bcfe1d4d6bb4c76a1f1a08",
          "transactionIndex": "0x7",
          "logIndex": "0xa",
          "removed": false
        }
      ],
      "logsBloom": "0x00000000000000000000000000000000000000000000020000000000000000000000000000000000000000200000000000001000020000000000000000000000000020000000040000000000000000000000000000000000000000000000000000000000000000000000000000000000000000000001000000000000000800000000000000000000000000000000000000000000000000000000000000000000000000000000000000000000000000000000000000800000000000000000400000000000000000000000000000000000000000000000000000000102000000000000000000000000000000000000000000000000000000000000000000000000",
      "type": "0x2",
      "transactionHash": "0x60aff724887b6c80de1b78ad270d0180363707a0e4bcfe1d4d6bb4c76a1f1a08",
      "transactionIndex": "0x7",
      "blockHash": "0xcf7de274ce432fb481e1de59cdf96d9a289fe0a24e839730239a1c252ddf7b88",
      "blockNumber": "0x22188d6",
      "gasUsed": "0x4ff20",
      "effectiveGasPrice": "0x124f80",
      "blobGasUsed": "0xec70",
      "from": "0x32fe11d9900d63350016374be98ff37c3af75847",
      "to": "0x04758ac6e7e0f6183bb1c824bfc0d306e7504ff0",
      "contractAddress": null,
      "daFootprintGasScalar": "0x138",
      "l1BaseFeeScalar": "0x44d",
      "l1BlobBaseFee": "0x4e",
      "l1BlobBaseFeeScalar": "0xa118b",
      "l1Fee": "0x2bf8",
      "l1GasPrice": "0x607",
      "l1GasUsed": "0xc2f"
    },
    {
      "status": "0x1",
      "cumulativeGasUsed": "0x23f01a",
      "logs": [
        {
          "address": "0x04758ac6e7e0f6183bb1c824bfc0d306e7504ff0",
          "topics": [
            "0x852115f98c3c55ed6b147d98c2968942dab6d7d5d496bfba106c426c2eea62f5",
            "0x0000000000000000000000000000000000000000000000000000000000000008",
            "0x0000000000000000000000000000000000000000000000000000000000000003"
          ],
          "data": "0x000000000000000000000000000000000000000000000000000000000000004000000000000000000000000000000000000000000000000000000ae9f7bcc00000000000000000000000000000000000000000000000000000000000000000104b6f7265616e20536e61636b20426f7800000000000000000000000000000000",
          "blockHash": "0xcf7de274ce432fb481e1de59cdf96d9a289fe0a24e839730239a1c252ddf7b88",
          "blockNumber": "0x22188d6",
          "blockTimestamp": "0x6956708c",
          "transactionHash": "0x4514f3c31ad31891463f77eda01e00f4572182d82f7985b7b6e5d0c25e48ce5c",
          "transactionIndex": "0x8",
          "logIndex": "0xb",
          "removed": false
        }
      ],
      "logsBloom": "0x00000000000000000000000000000000000000000000020000000000000000000000000000000000000000200000000000000000020080000000000000000000000000000000040000000000000000000000000000000000000000000000000000000000000000000000000000000000000000000001000000000000000800000080000000000000000000000000000000000000000000000000000000000000000000000000000000000000000000000000000000800000000000000000400040000000000000000000000000000000000000000000000000000002000000000000000000000000000000000000000000000000000000000000000000000000",
      "type": "0x2",
      "transactionHash": "0x4514f3c31ad31891463f77eda01e00f4572182d82f7985b7b6e5d0c25e48ce5c",
      "transactionIndex": "0x8",
      "blockHash": "0xcf7de274ce432fb481e1de59cdf96d9a289fe0a24e839730239a1c252ddf7b88",
      "blockNumber": "0x22188d6",
      "gasUsed": "0x4bc3c",
      "effectiveGasPrice": "0x124f80",
      "blobGasUsed": "0xea00",
      "from": "0x32fe11d9900d63350016374be98ff37c3af75847",
      "to": "0x04758ac6e7e0f6183bb1c824bfc0d306e7504ff0",
      "contractAddress": null,
      "daFootprintGasScalar": "0x138",
      "l1BaseFeeScalar": "0x44d",
      "l1BlobBaseFee": "0x4e",
      "l1BlobBaseFeeScalar": "0xa118b",
      "l1Fee": "0x2bf8",
      "l1GasPrice": "0x607",
      "l1GasUsed": "0xc07"
    },
    {
      "status": "0x1",
      "cumulativeGasUsed": "0x29e706",
      "logs": [
        {
          "address": "0x04758ac6e7e0f6183bb1c824bfc0d306e7504ff0",
          "topics": [
            "0x852115f98c3c55ed6b147d98c2968942dab6d7d5d496bfba106c426c2eea62f5",
            "0x0000000000000000000000000000000000000000000000000000000000000009",
            "0x0000000000000000000000000000000000000000000000000000000000000003"
          ],
          "data": "0x0000000000000000000000000000000000000000000000000000000000000040000000000000000000000000000000000000000000000000000009184e72a0000000000000000000000000000000000000000000000000000000000000000013476f6368756a616e672053617563652053657400000000000000000000000000",
          "blockHash": "0x8a99c37d0a999d64e88c3e69ba32a82fd1fa5382ec876740e437f231112ebda8",
          "blockNumber": "0x22188d6",
          "blockTimestamp": "0x6956708c",
          "transactionHash": "0xcaab11a4bfe24c2b391fa274cc776b6aa9228183a5aec035624541bc866a7d9f",
          "transactionIndex": "0xb",
          "logIndex": "0xe",
          "removed": false
        }
      ],
      "logsBloom": "0x00000000000000000000000000000000000000000000020000000000000000000000000000000000000000200000000000000000020000000000000000200000000000000000040000000000000000000000000000000000000000000000000000000000000000000000000000000000000000000001000000000000000800000000000000000000000000000000000000001000000000000000000000000000000000000000000000000000000000000000000000800000000000000000400000000000000000000000000000000000000000000000000000000002000000000000000000000000000000000000000000000000000000000000000000800000",
      "type": "0x2",
      "transactionHash": "0xcaab11a4bfe24c2b391fa274cc776b6aa9228183a5aec035624541bc866a7d9f",
      "transactionIndex": "0xb",
      "blockHash": "0x8a99c37d0a999d64e88c3e69ba32a82fd1fa5382ec876740e437f231112ebda8",
      "blockNumber": "0x22188d6",
      "gasUsed": "0x4bc60",
      "effectiveGasPrice": "0x124f80",
      "blobGasUsed": "0xeda8",
      "from": "0x32fe11d9900d63350016374be98ff37c3af75847",
      "to": "0x04758ac6e7e0f6183bb1c824bfc0d306e7504ff0",
      "contractAddress": null,
      "daFootprintGasScalar": "0x138",
      "l1BaseFeeScalar": "0x44d",
      "l1BlobBaseFee": "0x4e",
      "l1BlobBaseFeeScalar": "0xa118b",
      "l1Fee": "0x1eb8",
      "l1GasPrice": "0x607",
      "l1GasUsed": "0xc3d"
    },
    {
      "status": "0x1",
      "cumulativeGasUsed": "0x2ee692",
      "logs": [
        {
          "address": "0x04758ac6e7e0f6183bb1c824bfc0d306e7504ff0",
          "topics": [
            "0x852115f98c3c55ed6b147d98c2968942dab6d7d5d496bfba106c426c2eea62f5",
            "0x000000000000000000000000000000000000000000000000000000000000000a",
            "0x0000000000000000000000000000000000000000000000000000000000000004"
          ],
          "data": "0x00000000000000000000000000000000000000000000000000000000000000400000000000000000000000000000000000000000000000000000246139ca80000000000000000000000000000000000000000000000000000000000000000014576972656c65737320456172627564732050726f000000000000000000000000",
          "blockHash": "0x8a99c37d0a999d64e88c3e69ba32a82fd1fa5382ec876740e437f231112ebda8",
          "blockNumber": "0x22188d6",
          "blockTimestamp": "0x6956708c",
          "transactionHash": "0x4f08c796ce618a15f58e5c6674376987aa0d4ff0f45b2f8de42ce60e1bf457d8",
          "transactionIndex": "0xc",
          "logIndex": "0xf",
          "removed": false
        }
      ],
      "logsBloom": "0x00000000000000000000000000000000000000000000020000000000000000000000000000000000000000200000000000000000040000000020000000000000000000000000040000000000000000000000000000000000000000000000000008000000000000000000000000000000000000000001000000000000000800000000000000000000010000000000000000000000000000000000000000000000000000000000000000000000000000000000000000000000002000000000000000000000000000000000000000000000000000008000000000000002000000000000000000000000000000000000000000000000000000000000000000000000",
      "type": "0x2",
      "transactionHash": "0x4f08c796ce618a15f58e5c6674376987aa0d4ff0f45b2f8de42ce60e1bf457d8",
      "transactionIndex": "0xc",
      "blockHash": "0x8a99c37d0a999d64e88c3e69ba32a82fd1fa5382ec876740e437f231112ebda8",
      "blockNumber": "0x22188d6",
      "gasUsed": "0x4ff8c",
      "effectiveGasPrice": "0x124f80",
      "blobGasUsed": "0xf630",
      "from": "0x32fe11d9900d63350016374be98ff37c3af75847",
      "to": "0x04758ac6e7e0f6183bb1c824bfc0d306e7504ff0",
      "contractAddress": null,
      "daFootprintGasScalar": "0x138",
      "l1BaseFeeScalar": "0x44d",
      "l1BlobBaseFee": "0x4e",
      "l1BlobBaseFeeScalar": "0xa118b",
      "l1Fee": "0x1eb8",
      "l1GasPrice": "0x607",
      "l1GasUsed": "0xca8"
    },
    {
      "status": "0x1",
      "cumulativeGasUsed": "0x33a35e",
      "logs": [
        {
          "address": "0x04758ac6e7e0f6183bb1c824bfc0d306e7504ff0",
          "topics": [
            "0x852115f98c3c55ed6b147d98c2968942dab6d7d5d496bfba106c426c2eea62f5",
            "0x000000000000000000000000000000000000000000000000000000000000000b",
            "0x0000000000000000000000000000000000000000000000000000000000000004"
          ],
          "data": "0x000000000000000000000000000000000000000000000000000000000000004000000000000000000000000000000000000000000000000000000da475abf0000000000000000000000000000000000000000000000000000000000000000015536d6172742057617463682042616e64205061636b0000000000000000000000",
          "blockHash": "0x8a99c37d0a999d64e88c3e69ba32a82fd1fa5382ec876740e437f231112ebda8",
          "blockNumber": "0x22188d6",
          "blockTimestamp": "0x6956708c",
          "transactionHash": "0x7959f03f10fe05bd16c226c0681898cfbcaed3649d9e1070caa216aec054db79",
          "transactionIndex": "0xd",
          "logIndex": "0x10",
          "removed": false
        }
      ],
      "logsBloom": "0x00000000000000000000004000000000000000000000020000000000000000000000000000000000000000200000000000000000000000000000000000000000000000000000040000000000000000000000000000000000000000000000000008000000000000000000000000000000000000000001000000000000000800000000000000000000000000000000000000000000000000000000000000000000000000000000000000000000000000000000000000000000002000000000000000000000000000000000000000000000002000008000000000000002000000000000000000000000000000000000000000000000000000040000000000000000",
      "type": "0x2",
      "transactionHash": "0x7959f03f10fe05bd16c226c0681898cfbcaed3649d9e1070caa216aec054db79",
      "transactionIndex": "0xd",
      "blockHash": "0x8a99c37d0a999d64e88c3e69ba32a82fd1fa5382ec876740e437f231112ebda8",
      "blockNumber": "0x22188d6",
      "gasUsed": "0x4bccc",
      "effectiveGasPrice": "0x124f80",
      "blobGasUsed": "0xf768",
      "from": "0x32fe11d9900d63350016374be98ff37c3af75847",
      "to": "0x04758ac6e7e0f6183bb1c824bfc0d306e7504ff0",
      "contractAddress": null,
      "daFootprintGasScalar": "0x138",
      "l1BaseFeeScalar": "0x44d",
      "l1BlobBaseFee": "0x4e",
      "l1BlobBaseFeeScalar": "0xa118b",
      "l1Fee": "0x1eb8",
      "l1GasPrice": "0x607",
      "l1GasUsed": "0xcb5"
    },
    {
      "status": "0x1",
      "cumulativeGasUsed": "0x38605a",
      "logs": [
        {
          "address": "0x04758ac6e7e0f6183bb1c824bfc0d306e7504ff0",
          "topics": [
            "0x852115f98c3c55ed6b147d98c2968942dab6d7d5d496bfba106c426c2eea62f5",
            "0x000000000000000000000000000000000000000000000000000000000000000c",
            "0x0000000000000000000000000000000000000000000000000000000000000004"
          ],
          "data": "0x0000000000000000000000000000000000000000000000000000000000000040000000000000000000000000000000000000000000000000000016bcc41e90000000000000000000000000000000000000000000000000000000000000000019506f727461626c6520436861726765722032303030306d416800000000000000",
          "blockHash": "0x8a99c37d0a999d64e88c3e69ba32a82fd1fa5382ec876740e437f231112ebda8",
          "blockNumber": "0x22188d6",
          "blockTimestamp": "0x6956708c",
          "transactionHash": "0x8f057e3e8edc43133f3adbebb19624517c5e8569ded039ed0c9482471dd43fd7",
          "transactionIndex": "0xe",
          "logIndex": "0x11",
          "removed": false
        }
      ],
      "logsBloom": "0x00000000000000000000000000000000000002000000020000000000000000000000000000000200000000200000000000000000000000000000000000000000000000000000040000000000000000000000000000000000000000000000000008000000000000000000000000000000000000000001000000000000000800000000000000000000000000000000000000000000000000000000000000000000000000000000000000000000000000000000000000000000002000000000000000000000000000000000000000000000000000008000000000000002000000200000000000000000000000000000000000000000000000000000000000000000",
      "type": "0x2",
      "transactionHash": "0x8f057e3e8edc43133f3adbebb19624517c5e8569ded039ed0c9482471dd43fd7",
      "transactionIndex": "0xe",
      "blockHash": "0x8a99c37d0a999d64e88c3e69ba32a82fd1fa5382ec876740e437f231112ebda8",
      "blockNumber": "0x22188d6",
      "gasUsed": "0x4bcfc",
      "effectiveGasPrice": "0x124f80",
      "blobGasUsed": "0xfb10",
      "from": "0x32fe11d9900d63350016374be98ff37c3af75847",
      "to": "0x04758ac6e7e0f6183bb1c824bfc0d306e7504ff0",
      "contractAddress": null,
      "daFootprintGasScalar": "0x138",
      "l1BaseFeeScalar": "0x44d",
      "l1BlobBaseFee": "0x4e",
      "l1BlobBaseFeeScalar": "0xa118b",
      "l1Fee": "0x1eb8",
      "l1GasPrice": "0x607",
      "l1GasUsed": "0xceb"
    },
    {
      "status": "0x1",
      "cumulativeGasUsed": "0x3d5faa",
      "logs": [
        {
          "address": "0x04758ac6e7e0f6183bb1c824bfc0d306e7504ff0",
          "topics": [
            "0x852115f98c3c55ed6b147d98c2968942dab6d7d5d496bfba106c426c2eea62f5",
            "0x000000000000000000000000000000000000000000000000000000000000000d",
            "0x0000000000000000000000000000000000000000000000000000000000000005"
          ],
          "data": "0x000000000000000000000000000000000000000000000000000000000000004000000000000000000000000000000000000000000000000000001b48eb57e00000000000000000000000000000000000000000000000000000000000000000164b6f7265616e20436572616d6963205465612053657400000000000000000000",
          "blockHash": "0x8a99c37d0a999d64e88c3e69ba32a82fd1fa5382ec876740e437f231112ebda8",
          "blockNumber": "0x22188d6",
          "blockTimestamp": "0x6956708c",
          "transactionHash": "0x34c3eb2ff4dbfcde3a7aeeba774f73e0cbb07f899dedec977fe800f1a89f43c4",
          "transactionIndex": "0xf",
          "logIndex": "0x12",
          "removed": false
        }
      ],
      "logsBloom": "0x00000000000000000040000000000000000000000000020000000000000000000000000000000000000000200000000000000000000000000000000000000000000010000000040000000000000000000002000000000000000000000000000000000000000000000000000000000000000000000001000000000000000800000000000000000000000000000000001000000800000000000000000000000000000000000000000000000000000000000000000000000000000000000000000000000000000000000000000000000000000000000000000000000002000000020000000000000000000000000000000000000000000000000000000000000000",
      "type": "0x2",
      "transactionHash": "0x34c3eb2ff4dbfcde3a7aeeba774f73e0cbb07f899dedec977fe800f1a89f43c4",
      "transactionIndex": "0xf",
      "blockHash": "0x8a99c37d0a999d64e88c3e69ba32a82fd1fa5382ec876740e437f231112ebda8",
      "blockNumber": "0x22188d6",
      "gasUsed": "0x4ff50",
      "effectiveGasPrice": "0x124f80",
      "blobGasUsed": "0xf018",
      "from": "0x32fe11d9900d63350016374be98ff37c3af75847",
      "to": "0x04758ac6e7e0f6183bb1c824bfc0d306e7504ff0",
      "contractAddress": null,
      "daFootprintGasScalar": "0x138",
      "l1BaseFeeScalar": "0x44d",
      "l1BlobBaseFee": "0x4e",
      "l1BlobBaseFeeScalar": "0xa118b",
      "l1Fee": "0x1eb8",
      "l1GasPrice": "0x607",
      "l1GasUsed": "0xc57"
    },
    {
      "status": "0x1",
      "cumulativeGasUsed": "0x421be6",
      "logs": [
        {
          "address": "0x04758ac6e7e0f6183bb1c824bfc0d306e7504ff0",
          "topics": [
            "0x852115f98c3c55ed6b147d98c2968942dab6d7d5d496bfba106c426c2eea62f5",
            "0x000000000000000000000000000000000000000000000000000000000000000e",
            "0x0000000000000000000000000000000000000000000000000000000000000005"
          ],
          "data": "0x0000000000000000000000000000000000000000000000000000000000000040000000000000000000000000000000000000000000000000000012309ce54000000000000000000000000000000000000000000000000000000000000000001048616e6a69205061706572204c616d7000000000000000000000000000000000",
          "blockHash": "0x8a99c37d0a999d64e88c3e69ba32a82fd1fa5382ec876740e437f231112ebda8",
          "blockNumber": "0x22188d6",
          "blockTimestamp": "0x6956708c",
          "transactionHash": "0xba82216e2720cae4b54a3edfbf131114da9022a1defbb00ec31d3d8803bca012",
          "transactionIndex": "0x10",
          "logIndex": "0x13",
          "removed": false
        }
      ],
      "logsBloom": "0x00000000000000000000000000000000000000000000020000000000000000000000000000000000000000200000000000000000000000000000000000000000000010000000040800000000000000000000000000000000000000000000000000000000000000000000000000000000000000000001000000000000000800000000000000000000000000000000001008000800000000000000000000000000000000000000000000000000000000000000000000000020000000000000000000000000000000000000000000000000000000000000000000000002000000000000000000000000000000000000000000000000000000000000000000000000",
      "type": "0x2",
      "transactionHash": "0xba82216e2720cae4b54a3edfbf131114da9022a1defbb00ec31d3d8803bca012",
      "transactionIndex": "0x10",
      "blockHash": "0x8a99c37d0a999d64e88c3e69ba32a82fd1fa5382ec876740e437f231112ebda8",
      "blockNumber": "0x22188d6",
      "gasUsed": "0x4bc3c",
      "effectiveGasPrice": "0x124f80",
      "blobGasUsed": "0xe658",
      "from": "0x32fe11d9900d63350016374be98ff37c3af75847",
      "to": "0x04758ac6e7e0f6183bb1c824bfc0d306e7504ff0",
      "contractAddress": null,
      "daFootprintGasScalar": "0x138",
      "l1BaseFeeScalar": "0x44d",
      "l1BlobBaseFee": "0x4e",
      "l1BlobBaseFeeScalar": "0xa118b",
      "l1Fee": "0x1eb8",
      "l1GasPrice": "0x607",
      "l1GasUsed": "0xbd1"
    },
    {
      "status": "0x1",
      "cumulativeGasUsed": "0x46d852",
      "logs": [
        {
          "address": "0x04758ac6e7e0f6183bb1c824bfc0d306e7504ff0",
          "topics": [
            "0x852115f98c3c55ed6b147d98c2968942dab6d7d5d496bfba106c426c2eea62f5",
            "0x000000000000000000000000000000000000000000000000000000000000000f",
            "0x0000000000000000000000000000000000000000000000000000000000000005"
          ],
          "data": "0x000000000000000000000000000000000000000000000000000000000000004000000000000000000000000000000000000000000000000000000ae9f7bcc000000000000000000000000000000000000000000000000000000000000000001442616d626f6f204f7267616e697a657220536574000000000000000000000000",
          "blockHash": "0x8a99c37d0a999d64e88c3e69ba32a82fd1fa5382ec876740e437f231112ebda8",
          "blockNumber": "0x22188d6",
          "blockTimestamp": "0x6956708c",
          "transactionHash": "0x6c18a676c99277bfe1e31018faf3174fb29c198d490daab353d0964fc0520ec8",
          "transactionIndex": "0x11",
          "logIndex": "0x14",
          "removed": false
        }
      ],
      "logsBloom": "0x00000000000000000000000000000000000000000000020000000000000000000000000000000000000000200000000000000000000000000000000000000000000010000000040000000000000000000000000000000000000000000002000000000000000000000000000000000000000000000001000000000000000800000000000000000800000000000000001000000800000000000000000000000000000000000000000000000000000000000000000000000000000000000000000000000000000000000000000000000000000000000000000000000002000000000000000200000000000000000000000000000000000000000000000000000000",
      "type": "0x2",
      "transactionHash": "0x6c18a676c99277bfe1e31018faf3174fb29c198d490daab353d0964fc0520ec8",
      "transactionIndex": "0x11",
      "blockHash": "0x8a99c37d0a999d64e88c3e69ba32a82fd1fa5382ec876740e437f231112ebda8",
      "blockNumber": "0x22188d6",
      "gasUsed": "0x4bc6c",
      "effectiveGasPrice": "0x124f80",
      "blobGasUsed": "0xeda8",
      "from": "0x32fe11d9900d63350016374be98ff37c3af75847",
      "to": "0x04758ac6e7e0f6183bb1c824bfc0d306e7504ff0",
      "contractAddress": null,
      "daFootprintGasScalar": "0x138",
      "l1BaseFeeScalar": "0x44d",
      "l1BlobBaseFee": "0x4e",
      "l1BlobBaseFeeScalar": "0xa118b",
      "l1Fee": "0x1eb8",
      "l1GasPrice": "0x607",
      "l1GasUsed": "0xc3d"
    }
  ],
  "libraries": [],
  "pending": [],
  "returns": {},
  "timestamp": 1767272587,
  "chain": 84532,
  "commit": "aff47ed"
}