{
  "transactions": [
    {
      "hash": "0x9603bd3218c563309567f806b380292b453cce6a471151de315c8677ef2eb1bb",
      "transactionType": "CALL",
      "contractName": null,
      "contractAddress": "0x4aafcb744e5a9923640838c4788455b2cc1ebd48",
      "function": "adminCreateProduct(uint256,string,string,uint256,uint256,string)",
      "arguments": [
        "1",
        "Glow Serum Set",
        "beauty",
        "20000000000000",
        "100",
        "{\\\"titleKo\\\":\\\"\\\\uae00\\\\ub85c\\\\uc6b0 \\\\uc138\\\\ub7fc \\\\uc138\\\\ud2b8\\\",\\\"description\\\":\\\"Vitamin C brightening serum with hyaluronic acid\\\",\\\"descriptionKo\\\":\\\"\\\\ud788\\\\uc54c\\\\ub8e8\\\\ub860\\\\uc0b0\\\\uc774 \\\\ud568\\\\uc720\\\\ub41c \\\\ube44\\\\ud0c0\\\\ubbfc C \\\\ube0c\\\\ub77c\\\\uc774\\\\ud2b8\\\\ub2dd \\\\uc138\\\\ub7fc\\\",\\\"images\\\":[\\\"https://images.unsplash.com/photo-1620916566398-39f1143ab7be?w=400\\\"]}"
      ],
      "transaction": {
        "from": "0x32fe11d9900d63350016374be98ff37c3af75847",
        "to": "0x4aafcb744e5a9923640838c4788455b2cc1ebd48",
        "gas": "0xabbfa",
        "value": "0x0",
        "input": "0xffb56e3e000000000000000000000000000000000000000000000000000000000000000100000000000000000000000000000000000000000000000000000000000000c00000000000000000000000000000000000000000000000000000000000000100000000000000000000000000000000000000000000000000000012309ce5400000000000000000000000000000000000000000000000000000000000000000640000000000000000000000000000000000000000000000000000000000000140000000000000000000000000000000000000000000000000000000000000000e476c6f7720536572756d205365740000000000000000000000000000000000000000000000000000000000000000000000000000000000000000000000000006626561757479000000000000000000000000000000000000000000000000000000000000000000000000000000000000000000000000000000000000000001567b227469746c654b6f223a225c75616530305c75623835635c7563366230205c75633133385c7562376663205c75633133385c7564326238222c226465736372697074696f6e223a22566974616d696e204320627269676874656e696e6720736572756d2077697468206879616c75726f6e69632061636964222c226465736372697074696f6e4b6f223a225c75643738385c75633534635c75623865385c75623836305c75633062305c7563373734205c75643536385c75633732305c7562343163205c75626534345c75643063305c75626266632043205c75626530635c75623737635c75633737345c75643262385c7562326464205c75633133385c7562376663222c22696d61676573223a5b2268747470733a2f2f696d616765732e756e73706c6173682e636f6d2f70686f746f2d313632303931363536363339382d3339663131343361623762653f773d343030225d7d00000000000000000000",
        "nonce": "0x66",
        "chainId": "0x14a34"
      },
      "additionalContracts": [],
      "isFixedGasLimit": false
    },
    {
      "hash": "0x61cb68c5ab6fa25552a4a07e35594bfbc73620f320bf62b174543ad7481e9e8e",
      "transactionType": "CALL",
      "contractName": null,
      "contractAddress": "0x4aafcb744e5a9923640838c4788455b2cc1ebd48",
      "function": "adminCreateProduct(uint256,string,string,uint256,uint256,string)",
      "arguments": [
        "1",
        "K-Beauty Sheet Mask Pack",
        "beauty",
        "10000000000000",
        "200",
        "{\\\"titleKo\\\":\\\"\\\\uc2dc\\\\ud2b8 \\\\ub9c8\\\\uc2a4\\\\ud06c \\\\ud329\\\",\\\"description\\\":\\\"10-piece hydrating sheet mask collection\\\",\\\"descriptionKo\\\":\\\"10\\\\uc7a5 \\\\uc218\\\\ubd84 \\\\uc2dc\\\\ud2b8 \\\\ub9c8\\\\uc2a4\\\\ud06c \\\\ucee4\\\\ub809\\\\uc158\\\",\\\"images\\\":[\\\"https://images.unsplash.com/photo-1596755389378-c31d21fd1273?w=400\\\"]}"
      ],
      "transaction": {
        "from": "0x32fe11d9900d63350016374be98ff37c3af75847",
        "to": "0x4aafcb744e5a9923640838c4788455b2cc1ebd48",
        "gas": "0x9f95b",
        "value": "0x0",
        "input": "0xffb56e3e000000000000000000000000000000000000000000000000000000000000000100000000000000000000000000000000000000000000000000000000000000c00000000000000000000000000000000000000000000000000000000000000100000000000000000000000000000000000000000000000000000009184e72a00000000000000000000000000000000000000000000000000000000000000000c8000000000000000000000000000000000000000000000000000000000000014000000000000000000000000000000000000000000000000000000000000000184b2d426561757479205368656574204d61736b205061636b00000000000000000000000000000000000000000000000000000000000000000000000000000006626561757479000000000000000000000000000000000000000000000000000000000000000000000000000000000000000000000000000000000000000001187b227469746c654b6f223a225c75633264635c7564326238205c75623963385c75633261345c7564303663205c7564333239222c226465736372697074696f6e223a2231302d706965636520687964726174696e67207368656574206d61736b20636f6c6c656374696f6e222c226465736372697074696f6e4b6f223a2231305c7563376135205c75633231385c7562643834205c75633264635c7564326238205c75623963385c75633261345c7564303663205c75636565345c75623830395c7563313538222c22696d61676573223a5b2268747470733a2f2f696d616765732e756e73706c6173682e636f6d2f70686f746f2d313539363735353338393337382d6333316432316664313237333f773d343030225d7d0000000000000000",
        "nonce": "0x67",
        "chainId": "0x14a34"
      },
      "additionalContracts": [],
      "isFixedGasLimit": false
    },
    {
      "hash": "0x9f55840f2759381191ceb7f3292fb3beecf4ead5fe9265c026243c174e5de795",
      "transactionType": "CALL",
      "contractName": null,
      "contractAddress": "0x4aafcb744e5a9923640838c4788455b2cc1ebd48",
      "function": "adminCreateProduct(uint256,string,string,uint256,uint256,string)",
      "arguments": [
        "1",
        "Cushion Foundation SPF50",
        "beauty",
        "15000000000000",
        "75",
        "{\\\"titleKo\\\":\\\"\\\\ucfe0\\\\uc158 \\\\ud30c\\\\uc6b4\\\\ub370\\\\uc774\\\\uc158\\\",\\\"description\\\":\\\"Natural coverage with sun protection\\\",\\\"descriptionKo\\\":\\\"\\\\uc790\\\\uc5f0\\\\uc2a4\\\\ub7ec\\\\uc6b4 \\\\ucee4\\\\ubc84\\\\ub9ac\\\\uc9c0\\\\uc640 \\\\uc790\\\\uc678\\\\uc120 \\\\ucc28\\\\ub2e8\\\",\\\"images\\\":[\\\"https://images.unsplash.com/photo-1586495777744-4413f21062fa?w=400\\\"]}"
      ],
      "transaction": {
        "from": "0x32fe11d9900d63350016374be98ff37c3af75847",
        "to": "0x4aafcb744e5a9923640838c4788455b2cc1ebd48",
        "gas": "0xa7a5f",
        "value": "0x0",
        "input": "0xffb56e3e000000000000000000000000000000000000000000000000000000000000000100000000000000000000000000000000000000000000000000000000000000c0000000000000000000000000000000000000000000000000000000000000010000000000000000000000000000000000000000000000000000000da475abf000000000000000000000000000000000000000000000000000000000000000004b0000000000000000000000000000000000000000000000000000000000000140000000000000000000000000000000000000000000000000000000000000001843757368696f6e20466f756e646174696f6e205350463530000000000000000000000000000000000000000000000000000000000000000000000000000000066265617574790000000000000000000000000000000000000000000000000000000000000000000000000000000000000000000000000000000000000000012e7b227469746c654b6f223a225c75636665305c7563313538205c75643330635c75633662345c75623337305c75633737345c7563313538222c226465736372697074696f6e223a224e61747572616c20636f76657261676520776974682073756e2070726f74656374696f6e222c226465736372697074696f6e4b6f223a225c75633739305c75633566305c75633261345c75623765635c7563366234205c75636565345c75626338345c75623961635c75633963305c7563363430205c75633739305c75633637385c7563313230205c75636332385c7562326538222c22696d61676573223a5b2268747470733a2f2f696d616765732e756e73706c6173682e636f6d2f70686f746f2d313538363439353737373734342d3434313366323130363266613f773d343030225d7d000000000000000000000000000000000000",
        "nonce": "0x68",
        "chainId": "0x14a34"
      },
      "additionalContracts": [],
      "isFixedGasLimit": false
    },
    {
      "hash": "0x32c345226e66c4758ea801a6f6c5f338e0bc702ffee00616c5acacd7fbda5cfe",
      "transactionType": "CALL",
      "contractName": null,
      "contractAddress": "0x4aafcb744e5a9923640838c4788455b2cc1ebd48",
      "function": "adminCreateProduct(uint256,string,string,uint256,uint256,string)",
      "arguments": [
        "2",
        "Oversized Korean Blazer",
        "fashion",
        "30000000000000",
        "50",
        "{\\\"titleKo\\\":\\\"\\\\uc624\\\\ubc84\\\\uc0ac\\\\uc774\\\\uc988 \\\\ube14\\\\ub808\\\\uc774\\\\uc800\\\",\\\"description\\\":\\\"Korean street style oversized blazer\\\",\\\"descriptionKo\\\":\\\"\\\\ud55c\\\\uad6d \\\\uc2a4\\\\ud2b8\\\\ub9bf \\\\uc2a4\\\\ud0c0\\\\uc77c \\\\uc624\\\\ubc84\\\\uc0ac\\\\uc774\\\\uc988 \\\\ube14\\\\ub808\\\\uc774\\\\uc800\\\",\\\"images\\\":[\\\"https://images.unsplash.com/photo-1591047139829-d91aecb6caea?w=400\\\"]}"
      ],
      "transaction": {
        "from": "0x32fe11d9900d63350016374be98ff37c3af75847",
        "to": "0x4aafcb744e5a9923640838c4788455b2cc1ebd48",
        "gas": "0xb5d48",
        "value": "0x0",
        "input": "0xffb56e3e000000000000000000000000000000000000000000000000000000000000000200000000000000000000000000000000000000000000000000000000000000c0000000000000000000000000000000000000000000000000000000000000010000000000000000000000000000000000000000000000000000001b48eb57e0000000000000000000000000000000000000000000000000000000000000000032000000000000000000000000000000000000000000000000000000000000014000000000000000000000000000000000000000000000000000000000000000174f76657273697a6564204b6f7265616e20426c617a6572000000000000000000000000000000000000000000000000000000000000000000000000000000000766617368696f6e0000000000000000000000000000000000000000000000000000000000000000000000000000000000000000000000000000000000000001477b227469746c654b6f223a225c75633632345c75626338345c75633061635c75633737345c7563393838205c75626531345c75623830385c75633737345c7563383030222c226465736372697074696f6e223a224b6f7265616e20737472656574207374796c65206f76657273697a656420626c617a6572222c226465736372697074696f6e4b6f223a225c75643535635c7561643664205c75633261345c75643262385c7562396266205c75633261345c75643063305c7563373763205c75633632345c75626338345c75633061635c75633737345c7563393838205c75626531345c75623830385c75633737345c7563383030222c22696d61676573223a5b2268747470733a2f2f696d616765732e756e73706c6173682e636f6d2f70686f746f2d313539313034373133393832392d6439316165636236636165613f773d343030225d7d00000000000000000000000000000000000000000000000000",
        "nonce": "0x69",
        "chainId": "0x14a34"
      },
      "additionalContracts": [],
      "isFixedGasLimit": false
    },
    {
      "hash": "0x20fccb103146c69abe5587a2ba8fa19b93decbefbc42688b5904243dfbf422db",
      "transactionType": "CALL",
      "contractName": null,
      "contractAddress": "0x4aafcb744e5a9923640838c4788455b2cc1ebd48",
      "function": "adminCreateProduct(uint256,string,string,uint256,uint256,string)",
      "arguments": [
        "2",
        "Wide Leg Pants",
        "fashion",
        "20000000000000",
        "80",
        "{\\\"titleKo\\\":\\\"\\\\uc640\\\\uc774\\\\ub4dc \\\\ud32c\\\\uce20\\\",\\\"description\\\":\\\"Comfortable high-waist wide leg pants\\\",\\\"descriptionKo\\\":\\\"\\\\ud3b8\\\\uc548\\\\ud55c \\\\ud558\\\\uc774\\\\uc6e8\\\\uc2a4\\\\ud2b8 \\\\uc640\\\\uc774\\\\ub4dc \\\\ud32c\\\\uce20\\\",\\\"images\\\":[\\\"https://images.unsplash.com/photo-1594938298603-c8148c4dae35?w=400\\\"]}"
      ],
      "transaction": {
        "from": "0x32fe11d9900d63350016374be98ff37c3af75847",
        "to": "0x4aafcb744e5a9923640838c4788455b2cc1ebd48",
        "gas": "0x9f8ac",
        "value": "0x0",
        "input": "0xffb56e3e000000000000000000000000000000000000000000000000000000000000000200000000000000000000000000000000000000000000000000000000000000c00000000000000000000000000000000000000000000000000000000000000100000000000000000000000000000000000000000000000000000012309ce5400000000000000000000000000000000000000000000000000000000000000000500000000000000000000000000000000000000000000000000000000000000140000000000000000000000000000000000000000000000000000000000000000e57696465204c65672050616e7473000000000000000000000000000000000000000000000000000000000000000000000000000000000000000000000000000766617368696f6e0000000000000000000000000000000000000000000000000000000000000000000000000000000000000000000000000000000000000001177b227469746c654b6f223a225c75633634305c75633737345c7562346463205c75643332635c7563653230222c226465736372697074696f6e223a22436f6d666f727461626c6520686967682d77616973742077696465206c65672070616e7473222c226465736372697074696f6e4b6f223a225c75643362385c75633534385c7564353563205c75643535385c75633737345c75633665385c75633261345c7564326238205c75633634305c75633737345c7562346463205c75643332635c7563653230222c22696d61676573223a5b2268747470733a2f2f696d616765732e756e73706c6173682e636f6d2f70686f746f2d313539343933383239383630332d6338313438633464616533353f773d343030225d7d000000000000000000",
        "nonce": "0x6a",
        "chainId": "0x14a34"
      },
      "additionalContracts": [],
      "isFixedGasLimit": false
    },
    {
      "hash": "0x83e7525585dd2f3dd8417546a640ca7b85133d45460020f595a8a7a73d8aba38",
      "transactionType": "CALL",
      "contractName": null,
      "contractAddress": "0x4aafcb744e5a9923640838c4788455b2cc1ebd48",
      "function": "adminCreateProduct(uint256,string,string,uint256,uint256,string)",
      "arguments": [
        "2",
        "Korean Style Bucket Hat",
        "fashion",
        "10000000000000",
        "150",
        "{\\\"titleKo\\\":\\\"\\\\ubc84\\\\ud0b7 \\\\ud587\\\",\\\"description\\\":\\\"Trendy bucket hat in multiple colors\\\",\\\"descriptionKo\\\":\\\"\\\\ud2b8\\\\ub80c\\\\ub514\\\\ud55c \\\\ubc84\\\\ud0b7 \\\\ud587 \\\\ub2e4\\\\uc591\\\\ud55c \\\\uc0c9\\\\uc0c1\\\",\\\"images\\\":[\\\"https://images.unsplash.com/photo-1521369909029-2afed882baee?w=400\\\"]}"
      ],
      "transaction": {
        "from": "0x32fe11d9900d63350016374be98ff37c3af75847",
        "to": "0x4aafcb744e5a9923640838c4788455b2cc1ebd48",
        "gas": "0x96a45",
        "value": "0x0",
        "input": "0xffb56e3e000000000000000000000000000000000000000000000000000000000000000200000000000000000000000000000000000000000000000000000000000000c00000000000000000000000000000000000000000000000000000000000000100000000000000000000000000000000000000000000000000000009184e72a0000000000000000000000000000000000000000000000000000000000000000096000000000000000000000000000000000000000000000000000000000000014000000000000000000000000000000000000000000000000000000000000000174b6f7265616e205374796c65204275636b657420486174000000000000000000000000000000000000000000000000000000000000000000000000000000000766617368696f6e0000000000000000000000000000000000000000000000000000000000000000000000000000000000000000000000000000000000000001057b227469746c654b6f223a225c75626338345c7564306237205c7564353837222c226465736372697074696f6e223a225472656e6479206275636b65742068617420696e206d756c7469706c6520636f6c6f7273222c226465736372697074696f6e4b6f223a225c75643262385c75623830635c75623531345c7564353563205c75626338345c7564306237205c7564353837205c75623265345c75633539315c7564353563205c75633063395c7563306331222c22696d61676573223a5b2268747470733a2f2f696d616765732e756e73706c6173682e636f6d2f70686f746f2d313532313336393930393032392d3261666564383832626165653f773d343030225d7d000000000000000000000000000000000000000000000000000000",
        "nonce": "0x6b",
        "chainId": "0x14a34"
      },
      "additionalContracts": [],
      "isFixedGasLimit": false
    },
    {
      "hash": "0xeb0889a6c0060a176a10f34a1828866c17e201351f75c79f6dfe2cd9f7ae0e23",
      "transactionType": "CALL",
      "contractName": null,
      "contractAddress": "0x4aafcb744e5a9923640838c4788455b2cc1ebd48",
      "function": "adminCreateProduct(uint256,string,string,uint256,uint256,string)",
      "arguments": [
        "3",
        "Premium Kimchi Set",
        "food",
        "18000000000000",
        "60",
        "{\\\"titleKo\\\":\\\"\\\\ud504\\\\ub9ac\\\\ubbf8\\\\uc5c4 \\\\uae40\\\\uce58 \\\\uc138\\\\ud2b8\\\",\\\"description\\\":\\\"Handmade traditional kimchi variety pack\\\",\\\"descriptionKo\\\":\\\"\\\\uc218\\\\uc81c \\\\uc804\\\\ud1b5 \\\\uae40\\\\uce58 \\\\ubaa8\\\\ub4ec \\\\ud329\\\",\\\"images\\\":[\\\"https://images.unsplash.com/photo-1583224964978-2257b960c3e3?w=400\\\"]}"
      ],
      "transaction": {
        "from": "0x32fe11d9900d63350016374be98ff37c3af75847",
        "to": "0x4aafcb744e5a9923640838c4788455b2cc1ebd48",
        "gas": "0x9c71e",
        "value": "0x0",
        "input": "0xffb56e3e000000000000000000000000000000000000000000000000000000000000000300000000000000000000000000000000000000000000000000000000000000c000000000000000000000000000000000000000000000000000000000000001000000000000000000000000000000000000000000000000000000105ef39b2000000000000000000000000000000000000000000000000000000000000000003c000000000000000000000000000000000000000000000000000000000000014000000000000000000000000000000000000000000000000000000000000000125072656d69756d204b696d6368692053657400000000000000000000000000000000000000000000000000000000000000000000000000000000000000000004666f6f640000000000000000000000000000000000000000000000000000000000000000000000000000000000000000000000000000000000000000000001167b227469746c654b6f223a225c75643530345c75623961635c75626266385c7563356334205c75616534305c7563653538205c75633133385c7564326238222c226465736372697074696f6e223a2248616e646d61646520747261646974696f6e616c206b696d6368692076617269657479207061636b222c226465736372697074696f6e4b6f223a225c75633231385c7563383163205c75633830345c7564316235205c75616534305c7563653538205c75626161385c7562346563205c7564333239222c22696d61676573223a5b2268747470733a2f2f696d616765732e756e73706c6173682e636f6d2f70686f746f2d313538333232343936343937382d3232353762393630633365333f773d343030225d7d00000000000000000000",
        "nonce": "0x6c",
        "chainId": "0x14a34"
      },
      "additionalContracts": [],
      "isFixedGasLimit": false
    },
    {
      "hash": "0xae20aa1a1f3536053055ab3d37e52c81981fb39a29d6906da013d798e4ab70c8",
      "transactionType": "CALL",
      "contractName": null,
      "contractAddress": "0x4aafcb744e5a9923640838c4788455b2cc1ebd48",
      "function": "adminCreateProduct(uint256,string,string,uint256,uint256,string)",
      "arguments": [
        "3",
        "Korean Snack Box",
        "food",
        "12000000000000",
        "40",
        "{\\\"titleKo\\\":\\\"\\\\ud55c\\\\uad6d \\\\uc2a4\\\\ub0b5 \\\\ubc15\\\\uc2a4\\\",\\\"description\\\":\\\"Curated box of popular Korean snacks\\\",\\\"descriptionKo\\\":\\\"\\\\uc778\\\\uae30 \\\\ud55c\\\\uad6d \\\\uc2a4\\\\ub0b5 \\\\ud050\\\\ub808\\\\uc774\\\\uc158 \\\\ubc15\\\\uc2a4\\\",\\\"images\\\":[\\\"https://images.unsplash.com/photo-1558618666-fcd25c85cd64?w=400\\\"]}"
      ],
      "transaction": {
        "from": "0x32fe11d9900d63350016374be98ff37c3af75847",
        "to": "0x4aafcb744e5a9923640838c4788455b2cc1ebd48",
        "gas": "0x96aa9",
        "value": "0x0",
        "input": "0xffb56e3e000000000000000000000000000000000000000000000000000000000000000300000000000000000000000000000000000000000000000000000000000000c0000000000000000000000000000000000000000000000000000000000000010000000000000000000000000000000000000000000000000000000ae9f7bcc0000000000000000000000000000000000000000000000000000000000000000028000000000000000000000000000000000000000000000000000000000000014000000000000000000000000000000000000000000000000000000000000000104b6f7265616e20536e61636b20426f78000000000000000000000000000000000000000000000000000000000000000000000000000000000000000000000004666f6f640000000000000000000000000000000000000000000000000000000000000000000000000000000000000000000000000000000000000000000001157b227469746c654b6f223a225c75643535635c7561643664205c75633261345c7562306235205c75626331355c7563326134222c226465736372697074696f6e223a224375726174656420626f78206f6620706f70756c6172204b6f7265616e20736e61636b73222c226465736372697074696f6e4b6f223a225c75633737385c7561653330205c75643535635c7561643664205c75633261345c7562306235205c75643035305c75623830385c75633737345c7563313538205c75626331355c7563326134222c22696d61676573223a5b2268747470733a2f2f696d616765732e756e73706c6173682e636f6d2f70686f746f2d313535383631383636362d6663643235633835636436343f773d343030225d7d0000000000000000000000",
        "nonce": "0x6d",
        "chainId": "0x14a34"
      },
      "additionalContracts": [],
      "isFixedGasLimit": false
    },
    {
      "hash": "0xcbf8b3cf7c0ded1c99f5754fb64925b70ef2fe1d127e21f8873701aa21b814a8",
      "transactionType": "CALL",
      "contractName": null,
      "contractAddress": "0x4aafcb744e5a9923640838c4788455b2cc1ebd48",
      "function": "adminCreateProduct(uint256,string,string,uint256,uint256,string)",
      "arguments": [
        "3",
        "Gochujang Sauce Set",
        "food",
        "10000000000000",
        "90",
        "{\\\"titleKo\\\":\\\"\\\\uace0\\\\ucd94\\\\uc7a5 \\\\uc18c\\\\uc2a4 \\\\uc138\\\\ud2b8\\\",\\\"description\\\":\\\"Premium Korean red pepper paste set\\\",\\\"descriptionKo\\\":\\\"\\\\ud504\\\\ub9ac\\\\ubbf8\\\\uc5c4 \\\\ud55c\\\\uad6d \\\\uace0\\\\ucd94\\\\uc7a5 \\\\uc138\\\\ud2b8\\\",\\\"images\\\":[\\\"https://images.unsplash.com/photo-1534483509719-3feaee7c30da?w=400\\\"]}"
      ],
      "transaction": {
        "from": "0x32fe11d9900d63350016374be98ff37c3af75847",
        "to": "0x4aafcb744e5a9923640838c4788455b2cc1ebd48",
        "gas": "0x96aeb",
        "value": "0x0",
        "input": "0xffb56e3e000000000000000000000000000000000000000000000000000000000000000300000000000000000000000000000000000000000000000000000000000000c00000000000000000000000000000000000000000000000000000000000000100000000000000000000000000000000000000000000000000000009184e72a000000000000000000000000000000000000000000000000000000000000000005a00000000000000000000000000000000000000000000000000000000000001400000000000000000000000000000000000000000000000000000000000000013476f6368756a616e6720536175636520536574000000000000000000000000000000000000000000000000000000000000000000000000000000000000000004666f6f640000000000000000000000000000000000000000000000000000000000000000000000000000000000000000000000000000000000000000000001167b227469746c654b6f223a225c75616365305c75636439345c7563376135205c75633138635c7563326134205c75633133385c7564326238222c226465736372697074696f6e223a225072656d69756d204b6f7265616e207265642070657070657220706173746520736574222c226465736372697074696f6e4b6f223a225c75643530345c75623961635c75626266385c7563356334205c75643535635c7561643664205c75616365305c75636439345c7563376135205c75633133385c7564326238222c22696d61676573223a5b2268747470733a2f2f696d616765732e756e73706c6173682e636f6d2f70686f746f2d313533343438333530393731392d3366656165653763333064613f773d343030225d7d00000000000000000000",
        "nonce": "0x6e",
        "chainId": "0x14a34"
      },
      "additionalContracts": [],
      "isFixedGasLimit": false
    },
    {
      "hash": "0xaa04ac7d8ed76d6eef3d5dbc5ea2c62c11aad65c86660cb14cdb2545582a9fc8",
      "transactionType": "CALL",
      "contractName": null,
      "contractAddress": "0x4aafcb744e5a9923640838c4788455b2cc1ebd48",
      "function": "adminCreateProduct(uint256,string,string,uint256,uint256,string)",
      "arguments": [
        "4",
        "Wireless Earbuds Pro",
        "electronics",
        "40000000000000",
        "35",
        "{\\\"titleKo\\\":\\\"\\\\ubb34\\\\uc120 \\\\uc774\\\\uc5b4\\\\ubc84\\\\ub4dc \\\\ud504\\\\ub85c\\\",\\\"description\\\":\\\"Active noise cancelling wireless earbuds\\\",\\\"descriptionKo\\\":\\\"\\\\ub178\\\\uc774\\\\uc988 \\\\uce94\\\\uc2ac\\\\ub9c1 \\\\ubb34\\\\uc120 \\\\uc774\\\\uc5b4\\\\ubc84\\\\ub4dc\\\",\\\"images\\\":[\\\"https://images.unsplash.com/photo-1590658268037-6bf12165a8df?w=400\\\"]}"
      ],
      "transaction": {
        "from": "0x32fe11d9900d63350016374be98ff37c3af75847",
        "to": "0x4aafcb744e5a9923640838c4788455b2cc1ebd48",
        "gas": "0xa4139",
        "value": "0x0",
        "input": "0xffb56e3e000000000000000000000000000000000000000000000000000000000000000400000000000000000000000000000000000000000000000000000000000000c000000000000000000000000000000000000000000000000000000000000001000000000000000000000000000000000000000000000000000000246139ca8000000000000000000000000000000000000000000000000000000000000000002300000000000000000000000000000000000000000000000000000000000001400000000000000000000000000000000000000000000000000000000000000014576972656c65737320456172627564732050726f000000000000000000000000000000000000000000000000000000000000000000000000000000000000000b656c656374726f6e69637300000000000000000000000000000000000000000000000000000000000000000000000000000000000000000000000000000001277b227469746c654b6f223a225c75626233345c7563313230205c75633737345c75633562345c75626338345c7562346463205c75643530345c7562383563222c226465736372697074696f6e223a22416374697665206e6f6973652063616e63656c6c696e6720776972656c6573732065617262756473222c226465736372697074696f6e4b6f223a225c75623137385c75633737345c7563393838205c75636539345c75633261635c7562396331205c75626233345c7563313230205c75633737345c75633562345c75626338345c7562346463222c22696d61676573223a5b2268747470733a2f2f696d616765732e756e73706c6173682e636f6d2f70686f746f2d313539303635383236383033372d3662663132313635613864663f773d343030225d7d00000000000000000000000000000000000000000000000000",
        "nonce": "0x6f",
        "chainId": "0x14a34"
      },
      "additionalContracts": [],
      "isFixedGasLimit": false
    },
    {
      "hash": "0xc48517eb6ab8c62de2983e83087ec210f0e3cd35cd48ab203023fe9d9d85621a",
      "transactionType": "CALL",
      "contractName": null,
      "contractAddress": "0x4aafcb744e5a9923640838c4788455b2cc1ebd48",
      "function": "adminCreateProduct(uint256,string,string,uint256,uint256,string)",
      "arguments": [
        "4",
        "Smart Watch Band Pack",
        "electronics",
        "15000000000000",
        "120",
        "{\\\"titleKo\\\":\\\"\\\\uc2a4\\\\ub9c8\\\\ud2b8\\\\uc6cc\\\\uce58 \\\\ubc34\\\\ub4dc \\\\ud329\\\",\\\"description\\\":\\\"Premium leather band for smartwatches\\\",\\\"descriptionKo\\\":\\\"\\\\ud504\\\\ub9ac\\\\ubbf8\\\\uc5c4 \\\\uac00\\\\uc8fd \\\\uc2a4\\\\ub9c8\\\\ud2b8\\\\uc6cc\\\\uce58 \\\\ubc34\\\\ub4dc\\\",\\\"images\\\":[\\\"https://images.unsplash.com/photo-1579586337278-3befd40fd17a?w=400\\\"]}"
      ],
      "transaction": {
        "from": "0x32fe11d9900d63350016374be98ff37c3af75847",
        "to": "0x4aafcb744e5a9923640838c4788455b2cc1ebd48",
        "gas": "0xa7a3c",
        "value": "0x0",
        "input": "0xffb56e3e000000000000000000000000000000000000000000000000000000000000000400000000000000000000000000000000000000000000000000000000000000c0000000000000000000000000000000000000000000000000000000000000010000000000000000000000000000000000000000000000000000000da475abf000000000000000000000000000000000000000000000000000000000000000007800000000000000000000000000000000000000000000000000000000000001400000000000000000000000000000000000000000000000000000000000000015536d6172742057617463682042616e64205061636b0000000000000000000000000000000000000000000000000000000000000000000000000000000000000b656c656374726f6e696373000000000000000000000000000000000000000000000000000000000000000000000000000000000000000000000000000000012a7b227469746c654b6f223a225c75633261345c75623963385c75643262385c75633663635c7563653538205c75626333345c7562346463205c7564333239222c226465736372697074696f6e223a225072656d69756d206c6561746865722062616e6420666f7220736d61727477617463686573222c226465736372697074696f6e4b6f223a225c75643530345c75623961635c75626266385c7563356334205c75616330305c7563386664205c75633261345c75623963385c75643262385c75633663635c7563653538205c75626333345c7562346463222c22696d61676573223a5b2268747470733a2f2f696d616765732e756e73706c6173682e636f6d2f70686f746f2d313537393538363333373237382d3362656664343066643137613f773d343030225d7d00000000000000000000000000000000000000000000",
        "nonce": "0x70",
        "chainId": "0x14a34"
      },
      "additionalContracts": [],
      "isFixedGasLimit": false
    },
    {
      "hash": "0x3669a5013294309dbf73b2bbe1e66f8b4b2ad453b4192ea5148e819b34c6c99d",
      "transactionType": "CALL",
      "contractName": null,
      "contractAddress": "0x4aafcb744e5a9923640838c4788455b2cc1ebd48",
      "function": "adminCreateProduct(uint256,string,string,uint256,uint256,string)",
      "arguments": [
        "4",
        "Portable Charger 20000mAh",
        "electronics",
        "25000000000000",
        "90",
        "{\\\"titleKo\\\":\\\"\\\\ud3ec\\\\ud130\\\\ube14 \\\\ucda9\\\\uc804\\\\uae30\\\",\\\"description\\\":\\\"Fast charging portable power bank\\\",\\\"descriptionKo\\\":\\\"\\\\uace0\\\\uc18d \\\\ucda9\\\\uc804 \\\\ud3ec\\\\ud130\\\\ube14 \\\\ud30c\\\\uc6cc\\\\ubc45\\\\ud06c\\\",\\\"images\\\":[\\\"https://images.unsplash.com/photo-1609091839311-d5365f9ff1c5?w=400\\\"]}"
      ],
      "transaction": {
        "from": "0x32fe11d9900d63350016374be98ff37c3af75847",
        "to": "0x4aafcb744e5a9923640838c4788455b2cc1ebd48",
        "gas": "0x96b2e",
        "value": "0x0",
        "input": "0xffb56e3e000000000000000000000000000000000000000000000000000000000000000400000000000000000000000000000000000000000000000000000000000000c00000000000000000000000000000000000000000000000000000000000000100000000000000000000000000000000000000000000000000000016bcc41e9000000000000000000000000000000000000000000000000000000000000000005a00000000000000000000000000000000000000000000000000000000000001400000000000000000000000000000000000000000000000000000000000000019506f727461626c6520436861726765722032303030306d416800000000000000000000000000000000000000000000000000000000000000000000000000000b656c656374726f6e696373000000000000000000000000000000000000000000000000000000000000000000000000000000000000000000000000000000010d7b227469746c654b6f223a225c75643365635c75643133305c7562653134205c75636461395c75633830345c7561653330222c226465736372697074696f6e223a2246617374206368617267696e6720706f727461626c6520706f7765722062616e6b222c226465736372697074696f6e4b6f223a225c75616365305c7563313864205c75636461395c7563383034205c75643365635c75643133305c7562653134205c75643330635c75633663635c75626334355c7564303663222c22696d61676573223a5b2268747470733a2f2f696d616765732e756e73706c6173682e636f6d2f70686f746f2d313630393039313833393331312d6435333635663966663163353f773d343030225d7d00000000000000000000000000000000000000",
        "nonce": "0x71",
        "chainId": "0x14a34"
      },
      "additionalContracts": [],
      "isFixedGasLimit": false
    },
    {
      "hash": "0x33568b0558e620dc4b5f3642f7db821d9eee362d8a7194fcd74242fee7cf026c",
      "transactionType": "CALL",
      "contractName": null,
      "contractAddress": "0x4aafcb744e5a9923640838c4788455b2cc1ebd48",
      "function": "adminCreateProduct(uint256,string,string,uint256,uint256,string)",
      "arguments": [
        "5",
        "Korean Ceramic Tea Set",
        "home",
        "30000000000000",
        "25",
        "{\\\"titleKo\\\":\\\"\\\\ud55c\\\\uad6d \\\\ub3c4\\\\uc790\\\\uae30 \\\\ucc28 \\\\uc138\\\\ud2b8\\\",\\\"description\\\":\\\"Traditional Korean ceramic tea set\\\",\\\"descriptionKo\\\":\\\"\\\\uc804\\\\ud1b5 \\\\ud55c\\\\uad6d \\\\ub3c4\\\\uc790\\\\uae30 \\\\ucc28 \\\\uc138\\\\ud2b8\\\",\\\"images\\\":[\\\"https://images.unsplash.com/photo-1544787219-7f47ccb76574?w=400\\\"]}"
      ],
      "transaction": {
        "from": "0x32fe11d9900d63350016374be98ff37c3af75847",
        "to": "0x4aafcb744e5a9923640838c4788455b2cc1ebd48",
        "gas": "0x9c73f",
        "value": "0x0",
        "input": "0xffb56e3e000000000000000000000000000000000000000000000000000000000000000500000000000000000000000000000000000000000000000000000000000000c0000000000000000000000000000000000000000000000000000000000000010000000000000000000000000000000000000000000000000000001b48eb57e0000000000000000000000000000000000000000000000000000000000000000019000000000000000000000000000000000000000000000000000000000000014000000000000000000000000000000000000000000000000000000000000000164b6f7265616e20436572616d69632054656120536574000000000000000000000000000000000000000000000000000000000000000000000000000000000004686f6d650000000000000000000000000000000000000000000000000000000000000000000000000000000000000000000000000000000000000000000001147b227469746c654b6f223a225c75643535635c7561643664205c75623363345c75633739305c7561653330205c7563633238205c75633133385c7564326238222c226465736372697074696f6e223a22547261646974696f6e616c204b6f7265616e20636572616d69632074656120736574222c226465736372697074696f6e4b6f223a225c75633830345c7564316235205c75643535635c7561643664205c75623363345c75633739305c7561653330205c7563633238205c75633133385c7564326238222c22696d61676573223a5b2268747470733a2f2f696d616765732e756e73706c6173682e636f6d2f70686f746f2d313534343738373231392d3766343763636237363537343f773d343030225d7d000000000000000000000000",
        "nonce": "0x72",
        "chainId": "0x14a34"
      },
      "additionalContracts": [],
      "isFixedGasLimit": false
    },
    {
      "hash": "0xf954b9e4489a5f355e0073c3520e2802fdf9536673499cd68fd1b04b2c9a6abc",
      "transactionType": "CALL",
      "contractName": null,
      "contractAddress": "0x4aafcb744e5a9923640838c4788455b2cc1ebd48",
      "function": "adminCreateProduct(uint256,string,string,uint256,uint256,string)",
      "arguments": [
        "5",
        "Hanji Paper Lamp",
        "home",
        "20000000000000",
        "30",
        "{\\\"titleKo\\\":\\\"\\\\ud55c\\\\uc9c0 \\\\ub7a8\\\\ud504\\\",\\\"description\\\":\\\"Handcrafted Korean paper lamp\\\",\\\"descriptionKo\\\":\\\"\\\\uc218\\\\uacf5\\\\uc608 \\\\ud55c\\\\uc9c0 \\\\ub7a8\\\\ud504\\\",\\\"images\\\":[\\\"https://images.unsplash.com/photo-1507003211169-0a1dd7228f2d?w=400\\\"]}"
      ],
      "transaction": {
        "from": "0x32fe11d9900d63350016374be98ff37c3af75847",
        "to": "0x4aafcb744e5a9923640838c4788455b2cc1ebd48",
        "gas": "0x8eefe",
        "value": "0x0",
        "input": "0xffb56e3e000000000000000000000000000000000000000000000000000000000000000500000000000000000000000000000000000000000000000000000000000000c00000000000000000000000000000000000000000000000000000000000000100000000000000000000000000000000000000000000000000000012309ce54000000000000000000000000000000000000000000000000000000000000000001e0000000000000000000000000000000000000000000000000000000000000140000000000000000000000000000000000000000000000000000000000000001048616e6a69205061706572204c616d70000000000000000000000000000000000000000000000000000000000000000000000000000000000000000000000004686f6d650000000000000000000000000000000000000000000000000000000000000000000000000000000000000000000000000000000000000000000000e47b227469746c654b6f223a225c75643535635c7563396330205c75623761385c7564353034222c226465736372697074696f6e223a2248616e6463726166746564204b6f7265616e207061706572206c616d70222c226465736372697074696f6e4b6f223a225c75633231385c75616366355c7563363038205c75643535635c7563396330205c75623761385c7564353034222c22696d61676573223a5b2268747470733a2f2f696d616765732e756e73706c6173682e636f6d2f70686f746f2d313530373030333231313136392d3061316464373232386632643f773d343030225d7d00000000000000000000000000000000000000000000000000000000",
        "nonce": "0x73",
        "chainId": "0x14a34"
      },
      "additionalContracts": [],
      "isFixedGasLimit": false
    },
    {
      "hash": "0x586759eee737cd27044959855dae720317ad1b9ff8738899780b107d9d92d032",
      "transactionType": "CALL",
      "contractName": null,
      "contractAddress": "0x4aafcb744e5a9923640838c4788455b2cc1ebd48",
      "function": "adminCreateProduct(uint256,string,string,uint256,uint256,string)",
      "arguments": [
        "5",
        "Bamboo Organizer Set",
        "home",
        "12000000000000",
        "65",
        "{\\\"titleKo\\\":\\\"\\\\ub300\\\\ub098\\\\ubb34 \\\\uc815\\\\ub9ac\\\\ud568 \\\\uc138\\\\ud2b8\\\",\\\"description\\\":\\\"Eco-friendly bamboo desk organizer\\\",\\\"descriptionKo\\\":\\\"\\\\uce5c\\\\ud658\\\\uacbd \\\\ub300\\\\ub098\\\\ubb34 \\\\ucc45\\\\uc0c1 \\\\uc815\\\\ub9ac\\\\ud568\\\",\\\"images\\\":[\\\"https://images.unsplash.com/photo-1586105251261-72a756497a11?w=400\\\"]}"
      ],
      "transaction": {
        "from": "0x32fe11d9900d63350016374be98ff37c3af75847",
        "to": "0x4aafcb744e5a9923640838c4788455b2cc1ebd48",
        "gas": "0x96b4e",
        "value": "0x0",
        "input": "0xffb56e3e000000000000000000000000000000000000000000000000000000000000000500000000000000000000000000000000000000000000000000000000000000c0000000000000000000000000000000000000000000000000000000000000010000000000000000000000000000000000000000000000000000000ae9f7bcc00000000000000000000000000000000000000000000000000000000000000000410000000000000000000000000000000000000000000000000000000000000140000000000000000000000000000000000000000000000000000000000000001442616d626f6f204f7267616e697a6572205365740000000000000000000000000000000000000000000000000000000000000000000000000000000000000004686f6d6500000000000000000000000000000000000000000000000000000000000000000000000000000000000000000000000000000000000000000000011b7b227469746c654b6f223a225c75623330305c75623039385c7562623334205c75633831355c75623961635c7564353638205c75633133385c7564326238222c226465736372697074696f6e223a2245636f2d667269656e646c792062616d626f6f206465736b206f7267616e697a6572222c226465736372697074696f6e4b6f223a225c75636535635c75643635385c7561636264205c75623330305c75623039385c7562623334205c75636334355c7563306331205c75633831355c75623961635c7564353638222c22696d61676573223a5b2268747470733a2f2f696d616765732e756e73706c6173682e636f6d2f70686f746f2d313538363130353235313236312d3732613735363439376131313f773d343030225d7d0000000000",
        "nonce": "0x74",
        "chainId": "0x14a34"
      },
      "additionalContracts": [],
      "isFixedGasLimit": false
    }
  ],
  "receipts": [
    {
      "status": "0x1",
      "cumulativeGasUsed": "0xb4352",
      "logs": [
        {
          "address": "0x4aafcb744e5a9923640838c4788455b2cc1ebd48",
          "topics": [
            "0x852115f98c3c55ed6b147d98c2968942dab6d7d5d496bfba106c426c2eea62f5",
            "0x0000000000000000000000000000000000000000000000000000000000000001",
            "0x0000000000000000000000000000000000000000000000000000000000000001"
          ],
          "data": "0x0000000000000000000000000000000000000000000000000000000000000040000000000000000000000000000000000000000000000000000012309ce54000000000000000000000000000000000000000000000000000000000000000000e476c6f7720536572756d20536574000000000000000000000000000000000000",
          "blockHash": "0xd40e499dd74b5a30184c13e3c51cc0352c655dbd62feccd1584ddc4771d22111",
          "blockNumber": "0x221bb28",
          "blockTimestamp": "0x6956d530",
          "transactionHash": "0x9603bd3218c563309567f806b380292b453cce6a471151de315c8677ef2eb1bb",
          "transactionIndex": "0x2",
          "logIndex": "0x1",
          "removed": false
        }
      ],
      "logsBloom": "0x00000000000000020000000000000000000000000000000000000000000000000000000004000000000000200000000000000000000000000000000000040000000000000000040000000000000000000000000000040000000000000000000000000000000000000000000000000000000000000001000000000000000000000000000000000000000000000000000000000000000000000000000000000000000000000000000000000000000000000000000000000000000000000000000000000000000000000000000000000000000000000000000000000000000040000000000000000000000000000000000000000000000001000000000000000000",
      "type": "0x2",
      "transactionHash": "0x9603bd3218c563309567f806b380292b453cce6a471151de315c8677ef2eb1bb",
      "transactionIndex": "0x2",
      "blockHash": "0xd40e499dd74b5a30184c13e3c51cc0352c655dbd62feccd1584ddc4771d22111",
      "blockNumber": "0x221bb28",
      "gasUsed": "0x7c57d",
      "effectiveGasPrice": "0x124f80",
      "blobGasUsed": "0x1d400",
      "from": "0x32fe11d9900d63350016374be98ff37c3af75847",
      "to": "0x4aafcb744e5a9923640838c4788455b2cc1ebd48",
      "contractAddress": null,
      "daFootprintGasScalar": "0x138",
      "l1BaseFeeScalar": "0x44d",
      "l1BlobBaseFee": "0x1",
      "l1BlobBaseFeeScalar": "0xa118b",
      "l1Fee": "0x7a",
      "l1GasPrice": "0xa",
      "l1GasUsed": "0x1800"
    },
    {
      "status": "0x1",
      "cumulativeGasUsed": "0x121535",
      "logs": [
        {
          "address": "0x4aafcb744e5a9923640838c4788455b2cc1ebd48",
          "topics": [
            "0x852115f98c3c55ed6b147d98c2968942dab6d7d5d496bfba106c426c2eea62f5",
            "0x0000000000000000000000000000000000000000000000000000000000000002",
            "0x0000000000000000000000000000000000000000000000000000000000000001"
          ],
          "data": "0x0000000000000000000000000000000000000000000000000000000000000040000000000000000000000000000000000000000000000000000009184e72a00000000000000000000000000000000000000000000000000000000000000000184b2d426561757479205368656574204d61736b205061636b0000000000000000",
          "blockHash": "0xd40e499dd74b5a30184c13e3c51cc0352c655dbd62feccd1584ddc4771d22111",
          "blockNumber": "0x221bb28",
          "blockTimestamp": "0x6956d530",
          "transactionHash": "0x61cb68c5ab6fa25552a4a07e35594bfbc73620f320bf62b174543ad7481e9e8e",
          "transactionIndex": "0x3",
          "logIndex": "0x2",
          "removed": false
        }
      ],
      "logsBloom": "0x04000000000000020000000000000000000000000000000000000000000000000000000004000000000000200000000000000000000000000000000000040000000000000000040000000000000000000000000000040000000000000000000000000000000000000000000000000000000000000001000000000000000000000000000000000000000000000000000000000000000000000000000000000000000000000000000000000100000000000000000000000000000000000000000000000000000000000000000000000000000000000000000000000000000040000000000000000000000000000000000000000000008001000000000000000000",
      "type": "0x2",
      "transactionHash": "0x61cb68c5ab6fa25552a4a07e35594bfbc73620f320bf62b174543ad7481e9e8e",
      "transactionIndex": "0x3",
      "blockHash": "0xd40e499dd74b5a30184c13e3c51cc0352c655dbd62feccd1584ddc4771d22111",
      "blockNumber": "0x221bb28",
      "gasUsed": "0x6d1e3",
      "effectiveGasPrice": "0x124f80",
      "blobGasUsed": "0x19368",
      "from": "0x32fe11d9900d63350016374be98ff37c3af75847",
      "to": "0x4aafcb744e5a9923640838c4788455b2cc1ebd48",
      "contractAddress": null,
      "daFootprintGasScalar": "0x138",
      "l1BaseFeeScalar": "0x44d",
      "l1BlobBaseFee": "0x1",
      "l1BlobBaseFeeScalar": "0xa118b",
      "l1Fee": "0x7a",
      "l1GasPrice": "0xa",
      "l1GasUsed": "0x14b5"
    },
    {
      "status": "0x1",
      "cumulativeGasUsed": "0x193f4f",
      "logs": [
        {
          "address": "0x4aafcb744e5a9923640838c4788455b2cc1ebd48",
          "topics": [
            "0x852115f98c3c55ed6b147d98c2968942dab6d7d5d496bfba106c426c2eea62f5",
            "0x0000000000000000000000000000000000000000000000000000000000000003",
            "0x0000000000000000000000000000000000000000000000000000000000000001"
          ],
          "data": "0x000000000000000000000000000000000000000000000000000000000000004000000000000000000000000000000000000000000000000000000da475abf000000000000000000000000000000000000000000000000000000000000000001843757368696f6e20466f756e646174696f6e2053504635300000000000000000",
          "blockHash": "0xd40e499dd74b5a30184c13e3c51cc0352c655dbd62feccd1584ddc4771d22111",
          "blockNumber": "0x221bb28",
          "blockTimestamp": "0x6956d530",
          "transactionHash": "0x9f55840f2759381191ceb7f3292fb3beecf4ead5fe9265c026243c174e5de795",
          "transactionIndex": "0x4",
          "logIndex": "0x3",
          "removed": false
        }
      ],
      "logsBloom": "0x00000000000000020000000000000000000000000000000000000000000000000000000004000000000000200000000000000000020000000000000000040000000000000000040000000000000000000000000000040000000000000000000000000000000000000000000000000000000000000001000000000000000000000000000000000000000000000000000000000000000000000000000000000000000000000000000000000000000000000000000000800000000000000000400000000000000000000000000000000000000000000000000000000000000040000000000000000000000000000000000000000000000001000000000000000000",
      "type": "0x2",
      "transactionHash": "0x9f55840f2759381191ceb7f3292fb3beecf4ead5fe9265c026243c174e5de795",
      "transactionIndex": "0x4",
      "blockHash": "0xd40e499dd74b5a30184c13e3c51cc0352c655dbd62feccd1584ddc4771d22111",
      "blockNumber": "0x221bb28",
      "gasUsed": "0x72a1a",
      "effectiveGasPrice": "0x124f80",
      "blobGasUsed": "0x1b0a8",
      "from": "0x32fe11d9900d63350016374be98ff37c3af75847",
      "to": "0x4aafcb744e5a9923640838c4788455b2cc1ebd48",
      "contractAddress": null,
      "daFootprintGasScalar": "0x138",
      "l1BaseFeeScalar": "0x44d",
      "l1BlobBaseFee": "0x1",
      "l1BlobBaseFeeScalar": "0xa118b",
      "l1Fee": "0x7a",
      "l1GasPrice": "0xa",
      "l1GasUsed": "0x1639"
    },
    {
      "status": "0x1",
      "cumulativeGasUsed": "0x210490",
      "logs": [
        {
          "address": "0x4aafcb744e5a9923640838c4788455b2cc1ebd48",
          "topics": [
            "0x852115f98c3c55ed6b147d98c2968942dab6d7d5d496bfba106c426c2eea62f5",
            "0x0000000000000000000000000000000000000000000000000000000000000004",
            "0x0000000000000000000000000000000000000000000000000000000000000002"
          ],
          "data": "0x000000000000000000000000000000000000000000000000000000000000004000000000000000000000000000000000000000000000000000001b48eb57e00000000000000000000000000000000000000000000000000000000000000000174f76657273697a6564204b6f7265616e20426c617a6572000000000000000000",
          "blockHash": "0xd40e499dd74b5a30184c13e3c51cc0352c655dbd62feccd1584ddc4771d22111",
          "blockNumber": "0x221bb28",
          "blockTimestamp": "0x6956d530",
          "transactionHash": "0x32c345226e66c4758ea801a6f6c5f338e0bc702ffee00616c5acacd7fbda5cfe",
          "transactionIndex": "0x5",
          "logIndex": "0x4",
          "removed": false
        }
      ],
      "logsBloom": "0x04000000000000020000000000000000000000000000000000000000000000000000000004000000000000200000000000000000000000000000000000000000000000000000040000000000000000000000000000000000000000000000000008000000000000000000000000000000000000000001000000000000000000000000000000000000000000000000000000000000000000000000000000000000000000000000000000000100000000000000000000000000002000000000000000000000000000000000000000000000000000008000000000000000000000000000000000000000000000000000000000000000008001000000000000000000",
      "type": "0x2",
      "transactionHash": "0x32c345226e66c4758ea801a6f6c5f338e0bc702ffee00616c5acacd7fbda5cfe",
      "transactionIndex": "0x5",
      "blockHash": "0xd40e499dd74b5a30184c13e3c51cc0352c655dbd62feccd1584ddc4771d22111",
      "blockNumber": "0x221bb28",
      "gasUsed": "0x7c541",
      "effectiveGasPrice": "0x124f80",
      "blobGasUsed": "0x19bf0",
      "from": "0x32fe11d9900d63350016374be98ff37c3af75847",
      "to": "0x4aafcb744e5a9923640838c4788455b2cc1ebd48",
      "contractAddress": null,
      "daFootprintGasScalar": "0x138",
      "l1BaseFeeScalar": "0x44d",
      "l1BlobBaseFee": "0x1",
      "l1BlobBaseFeeScalar": "0xa118b",
      "l1Fee": "0x7a",
      "l1GasPrice": "0xa",
      "l1GasUsed": "0x1520"
    },
    {
      "status": "0x1",
      "cumulativeGasUsed": "0x27d5fb",
      "logs": [
        {
          "address": "0x4aafcb744e5a9923640838c4788455b2cc1ebd48",
          "topics": [
            "0x852115f98c3c55ed6b147d98c2968942dab6d7d5d496bfba106c426c2eea62f5",
            "0x0000000000000000000000000000000000000000000000000000000000000005",
            "0x0000000000000000000000000000000000000000000000000000000000000002"
          ],
          "data": "0x0000000000000000000000000000000000000000000000000000000000000040000000000000000000000000000000000000000000000000000012309ce54000000000000000000000000000000000000000000000000000000000000000000e57696465204c65672050616e7473000000000000000000000000000000000000",
          "blockHash": "0xd40e499dd74b5a30184c13e3c51cc0352c655dbd62feccd1584ddc4771d22111",
          "blockNumber": "0x221bb28",
          "blockTimestamp": "0x6956d530",
          "transactionHash": "0x20fccb103146c69abe5587a2ba8fa19b93decbefbc42688b5904243dfbf422db",
          "transactionIndex": "0x6",
          "logIndex": "0x5",
          "removed": false
        }
      ],
      "logsBloom": "0x04000000000000020000000000000000000000000000000000000000000000000000000004000000000000200000000000000000000000000000000000000000000010000000040000000000000000000000000000000000000000000000000000000000000000000000000000000000000000000001000000000000000000000000000000000000000000000000001000000800000000000000000000000000000000000000000000000100000000000000000000000000000000000000000000000000000000000000000000000000000000000000000000000000000000000000000000000000000000000000000000000000008001000000000000000000",
      "type": "0x2",
      "transactionHash": "0x20fccb103146c69abe5587a2ba8fa19b93decbefbc42688b5904243dfbf422db",
      "transactionIndex": "0x6",
      "blockHash": "0xd40e499dd74b5a30184c13e3c51cc0352c655dbd62feccd1584ddc4771d22111",
      "blockNumber": "0x221bb28",
      "gasUsed": "0x6d16b",
      "effectiveGasPrice": "0x124f80",
      "blobGasUsed": "0x184c8",
      "from": "0x32fe11d9900d63350016374be98ff37c3af75847",
      "to": "0x4aafcb744e5a9923640838c4788455b2cc1ebd48",
      "contractAddress": null,
      "daFootprintGasScalar": "0x138",
      "l1BaseFeeScalar": "0x44d",
      "l1BlobBaseFee": "0x1",
      "l1BlobBaseFeeScalar": "0xa118b",
      "l1Fee": "0x7a",
      "l1GasPrice": "0xa",
      "l1GasUsed": "0x13f9"
    },
    {
      "status": "0x1",
      "cumulativeGasUsed": "0x2ea6fa",
      "logs": [
        {
          "address": "0x4aafcb744e5a9923640838c4788455b2cc1ebd48",
          "topics": [
            "0x852115f98c3c55ed6b147d98c2968942dab6d7d5d496bfba106c426c2eea62f5",
            "0x0000000000000000000000000000000000000000000000000000000000000006",
            "0x0000000000000000000000000000000000000000000000000000000000000002"
          ],
          "data": "0x0000000000000000000000000000000000000000000000000000000000000040000000000000000000000000000000000000000000000000000009184e72a00000000000000000000000000000000000000000000000000000000000000000174b6f7265616e205374796c65204275636b657420486174000000000000000000",
          "blockHash": "0xd40e499dd74b5a30184c13e3c51cc0352c655dbd62feccd1584ddc4771d22111",
          "blockNumber": "0x221bb28",
          "blockTimestamp": "0x6956d530",
          "transactionHash": "0x83e7525585dd2f3dd8417546a640ca7b85133d45460020f595a8a7a73d8aba38",
          "transactionIndex": "0x7",
          "logIndex": "0x6",
          "removed": false
        }
      ],
      "logsBloom": "0x04000000000000020000000000000000000000000000000000000000000000000000000004000000000000200000000000000000000400000000000000000000000000000000040000000000000000000000000000000000000000000000000000000000000000000000000000000000000000000001000000000000000000000000000400000000000000000000000000000000000000000000000000000000000000000000000000000100000000000000000000000000000000080000000000000000000000000000000000000000000000000000000000000000000000000000000000000000000000000000000000000000008001000000000000000000",
      "type": "0x2",
      "transactionHash": "0x83e7525585dd2f3dd8417546a640ca7b85133d45460020f595a8a7a73d8aba38",
      "transactionIndex": "0x7",
      "blockHash": "0xd40e499dd74b5a30184c13e3c51cc0352c655dbd62feccd1584ddc4771d22111",
      "blockNumber": "0x221bb28",
      "gasUsed": "0x6d0ff",
      "effectiveGasPrice": "0x124f80",
      "blobGasUsed": "0x18d50",
      "from": "0x32fe11d9900d63350016374be98ff37c3af75847",
      "to": "0x4aafcb744e5a9923640838c4788455b2cc1ebd48",
      "contractAddress": null,
      "daFootprintGasScalar": "0x138",
      "l1BaseFeeScalar": "0x44d",
      "l1BlobBaseFee": "0x1",
      "l1BlobBaseFeeScalar": "0xa118b",
      "l1Fee": "0x7a",
      "l1GasPrice": "0xa",
      "l1GasUsed": "0x1464"
    },
    {
      "status": "0x1",
      "cumulativeGasUsed": "0x35bb31",
      "logs": [
        {
          "address": "0x4aafcb744e5a9923640838c4788455b2cc1ebd48",
          "topics": [
            "0x852115f98c3c55ed6b147d98c2968942dab6d7d5d496bfba106c426c2eea62f5",
            "0x0000000000000000000000000000000000000000000000000000000000000007",
            "0x0000000000000000000000000000000000000000000000000000000000000003"
          ],
          "data": "0x00000000000000000000000000000000000000000000000000000000000000400000000000000000000000000000000000000000000000000000105ef39b200000000000000000000000000000000000000000000000000000000000000000125072656d69756d204b696d636869205365740000000000000000000000000000",
          "blockHash": "0xd40e499dd74b5a30184c13e3c51cc0352c655dbd62feccd1584ddc4771d22111",
          "blockNumber": "0x221bb28",
          "blockTimestamp": "0x6956d530",
          "transactionHash": "0xeb0889a6c0060a176a10f34a1828866c17e201351f75c79f6dfe2cd9f7ae0e23",
          "transactionIndex": "0x8",
          "logIndex": "0x7",
          "removed": false
        }
      ],
      "logsBloom": "0x00000000000000020000000000000000000000000000000000000000000000000000000004000000000000200000000000001000020000000000000000000000000020000000040000000000000000000000000000000000000000000000000000000000000000000000000000000000000000000001000000000000000000000000000000000000000000000000000000000000000000000000000000000000000000000000000000000000000000000000000000800000000000000000400000000000000000000000000000000000000000000000000000000100000000000000000000000000000000000000000000000000000001000000000000000000",
      "type": "0x2",
      "transactionHash": "0xeb0889a6c0060a176a10f34a1828866c17e201351f75c79f6dfe2cd9f7ae0e23",
      "transactionIndex": "0x8",
      "blockHash": "0xd40e499dd74b5a30184c13e3c51cc0352c655dbd62feccd1584ddc4771d22111",
      "blockNumber": "0x221bb28",
      "gasUsed": "0x71437",
      "effectiveGasPrice": "0x124f80",
      "blobGasUsed": "0x19e60",
      "from": "0x32fe11d9900d63350016374be98ff37c3af75847",
      "to": "0x4aafcb744e5a9923640838c4788455b2cc1ebd48",
      "contractAddress": null,
      "daFootprintGasScalar": "0x138",
      "l1BaseFeeScalar": "0x44d",
      "l1BlobBaseFee": "0x1",
      "l1BlobBaseFeeScalar": "0xa118b",
      "l1Fee": "0x7a",
      "l1GasPrice": "0xa",
      "l1GasUsed": "0x1548"
    },
    {
      "status": "0x1",
      "cumulativeGasUsed": "0x41148b",
      "logs": [
        {
          "address": "0x4aafcb744e5a9923640838c4788455b2cc1ebd48",
          "topics": [
            "0x852115f98c3c55ed6b147d98c2968942dab6d7d5d496bfba106c426c2eea62f5",
            "0x0000000000000000000000000000000000000000000000000000000000000008",
            "0x0000000000000000000000000000000000000000000000000000000000000003"
          ],
          "data": "0x000000000000000000000000000000000000000000000000000000000000004000000000000000000000000000000000000000000000000000000ae9f7bcc00000000000000000000000000000000000000000000000000000000000000000104b6f7265616e20536e61636b20426f7800000000000000000000000000000000",
          "blockHash": "0xa6fcbe07d3c061941e9e0fed57cd19e9be97f44c7964369b7fe97bc034707876",
          "blockNumber": "0x221bb28",
          "blockTimestamp": "0x6956d530",
          "transactionHash": "0xae20aa1a1f3536053055ab3d37e52c81981fb39a29d6906da013d798e4ab70c8",
          "transactionIndex": "0xb",
          "logIndex": "0xb",
          "removed": false
        }
      ],
      "logsBloom": "0x00000000000000020000000000000000000000000000000000000000000000000000000004000000000000200000000000000000020080000000000000000000000000000000040000000000000000000000000000000000000000000000000000000000000000000000000000000000000000000001000000000000000000000080000000000000000000000000000000000000000000000000000000000000000000000000000000000000000000000000000000800000000000000000400040000000000000000000000000000000000000000000000000000000000000000000000000000000000000000000000000000000000001000000000000000000",
      "type": "0x2",
      "transactionHash": "0xae20aa1a1f3536053055ab3d37e52c81981fb39a29d6906da013d798e4ab70c8",
      "transactionIndex": "0xb",
      "blockHash": "0xa6fcbe07d3c061941e9e0fed57cd19e9be97f44c7964369b7fe97bc034707876",
      "blockNumber": "0x221bb28",
      "gasUsed": "0x6d147",
      "effectiveGasPrice": "0x124f80",
      "blobGasUsed": "0x17fe8",
      "from": "0x32fe11d9900d63350016374be98ff37c3af75847",
      "to": "0x4aafcb744e5a9923640838c4788455b2cc1ebd48",
      "contractAddress": null,
      "daFootprintGasScalar": "0x138",
      "l1BaseFeeScalar": "0x44d",
      "l1BlobBaseFee": "0x1",
      "l1BlobBaseFeeScalar": "0xa118b",
      "l1Fee": "0x53",
      "l1GasPrice": "0xa",
      "l1GasUsed": "0x13b6"
    },
    {
      "status": "0x1",
      "cumulativeGasUsed": "0x47e602",
      "logs": [
        {
          "address": "0x4aafcb744e5a9923640838c4788455b2cc1ebd48",
          "topics": [
            "0x852115f98c3c55ed6b147d98c2968942dab6d7d5d496bfba106c426c2eea62f5",
            "0x0000000000000000000000000000000000000000000000000000000000000009",
            "0x0000000000000000000000000000000000000000000000000000000000000003"
          ],
          "data": "0x0000000000000000000000000000000000000000000000000000000000000040000000000000000000000000000000000000000000000000000009184e72a0000000000000000000000000000000000000000000000000000000000000000013476f6368756a616e672053617563652053657400000000000000000000000000",
          "blockHash": "0xa6fcbe07d3c061941e9e0fed57cd19e9be97f44c7964369b7fe97bc034707876",
          "blockNumber": "0x221bb28",
          "blockTimestamp": "0x6956d530",
          "transactionHash": "0xcbf8b3cf7c0ded1c99f5754fb64925b70ef2fe1d127e21f8873701aa21b814a8",
          "transactionIndex": "0xc",
          "logIndex": "0xc",
          "removed": false
        }
      ],
      "logsBloom": "0x00000000000000020000000000000000000000000000000000000000000000000000000004000000000000200000000000000000020000000000000000200000000000000000040000000000000000000000000000000000000000000000000000000000000000000000000000000000000000000001000000000000000000000000000000000000000000000000000000001000000000000000000000000000000000000000000000000000000000000000000000800000000000000000400000000000000000000000000000000000000000000000000000000000000000000000000000000000000000000000000000000000000001000000000000800000",
      "type": "0x2",
      "transactionHash": "0xcbf8b3cf7c0ded1c99f5754fb64925b70ef2fe1d127e21f8873701aa21b814a8",
      "transactionIndex": "0xc",
      "blockHash": "0xa6fcbe07d3c061941e9e0fed57cd19e9be97f44c7964369b7fe97bc034707876",
      "blockNumber": "0x221bb28",
      "gasUsed": "0x6d177",
      "effectiveGasPrice": "0x124f80",
      "blobGasUsed": "0x194a0",
      "from": "0x32fe11d9900d63350016374be98ff37c3af75847",
      "to": "0x4aafcb744e5a9923640838c4788455b2cc1ebd48",
      "contractAddress": null,
      "daFootprintGasScalar": "0x138",
      "l1BaseFeeScalar": "0x44d",
      "l1BlobBaseFee": "0x1",
      "l1BlobBaseFeeScalar": "0xa118b",
      "l1Fee": "0x53",
      "l1GasPrice": "0xa",
      "l1GasUsed": "0x14c2"
    },
    {
      "status": "0x1",
      "cumulativeGasUsed": "0x4f52a0",
      "logs": [
        {
          "address": "0x4aafcb744e5a9923640838c4788455b2cc1ebd48",
          "topics": [
            "0x852115f98c3c55ed6b147d98c2968942dab6d7d5d496bfba106c426c2eea62f5",
            "0x000000000000000000000000000000000000000000000000000000000000000a",
            "0x0000000000000000000000000000000000000000000000000000000000000004"
          ],
          "data": "0x00000000000000000000000000000000000000000000000000000000000000400000000000000000000000000000000000000000000000000000246139ca80000000000000000000000000000000000000000000000000000000000000000014576972656c65737320456172627564732050726f000000000000000000000000",
          "blockHash": "0xa6fcbe07d3c061941e9e0fed57cd19e9be97f44c7964369b7fe97bc034707876",
          "blockNumber": "0x221bb28",
          "blockTimestamp": "0x6956d530",
          "transactionHash": "0xaa04ac7d8ed76d6eef3d5dbc5ea2c62c11aad65c86660cb14cdb2545582a9fc8",
          "transactionIndex": "0xd",
          "logIndex": "0xd",
          "removed": false
        }
      ],
      "logsBloom": "0x00000000000000020000000000000000000000000000000000000000000000000000000004000000000000200000000000000000040000000020000000000000000000000000040000000000000000000000000000000000000000000000000008000000000000000000000000000000000000000001000000000000000000000000000000000000010000000000000000000000000000000000000000000000000000000000000000000000000000000000000000000000002000000000000000000000000000000000000000000000000000008000000000000000000000000000000000000000000000000000000000000000000001000000000000000000",
      "type": "0x2",
      "transactionHash": "0xaa04ac7d8ed76d6eef3d5dbc5ea2c62c11aad65c86660cb14cdb2545582a9fc8",
      "transactionIndex": "0xd",
      "blockHash": "0xa6fcbe07d3c061941e9e0fed57cd19e9be97f44c7964369b7fe97bc034707876",
      "blockNumber": "0x221bb28",
      "gasUsed": "0x76c9e",
      "effectiveGasPrice": "0x124f80",
      "blobGasUsed": "0x19980",
      "from": "0x32fe11d9900d63350016374be98ff37c3af75847",
      "to": "0x4aafcb744e5a9923640838c4788455b2cc1ebd48",
      "contractAddress": null,
      "daFootprintGasScalar": "0x138",
      "l1BaseFeeScalar": "0x44d",
      "l1BlobBaseFee": "0x1",
      "l1BlobBaseFeeScalar": "0xa118b",
      "l1Fee": "0x53",
      "l1GasPrice": "0xa",
      "l1GasUsed": "0x1505"
    },
    {
      "status": "0x1",
      "cumulativeGasUsed": "0x567ca2",
      "logs": [
        {
          "address": "0x4aafcb744e5a9923640838c4788455b2cc1ebd48",
          "topics": [
            "0x852115f98c3c55ed6b147d98c2968942dab6d7d5d496bfba106c426c2eea62f5",
            "0x000000000000000000000000000000000000000000000000000000000000000b",
            "0x0000000000000000000000000000000000000000000000000000000000000004"
          ],
          "data": "0x000000000000000000000000000000000000000000000000000000000000004000000000000000000000000000000000000000000000000000000da475abf0000000000000000000000000000000000000000000000000000000000000000015536d6172742057617463682042616e64205061636b0000000000000000000000",
          "blockHash": "0xa6fcbe07d3c061941e9e0fed57cd19e9be97f44c7964369b7fe97bc034707876",
          "blockNumber": "0x221bb28",
          "blockTimestamp": "0x6956d530",
          "transactionHash": "0xc48517eb6ab8c62de2983e83087ec210f0e3cd35cd48ab203023fe9d9d85621a",
          "transactionIndex": "0xe",
          "logIndex": "0xe",
          "removed": false
        }
      ],
      "logsBloom": "0x00000000000000020000004000000000000000000000000000000000000000000000000004000000000000200000000000000000000000000000000000000000000000000000040000000000000000000000000000000000000000000000000008000000000000000000000000000000000000000001000000000000000000000000000000000000000000000000000000000000000000000000000000000000000000000000000000000000000000000000000000000000002000000000000000000000000000000000000000000000002000008000000000000000000000000000000000000000000000000000000000000000000001040000000000000000",
      "type": "0x2",
      "transactionHash": "0xc48517eb6ab8c62de2983e83087ec210f0e3cd35cd48ab203023fe9d9d85621a",
      "transactionIndex": "0xe",
      "blockHash": "0xa6fcbe07d3c061941e9e0fed57cd19e9be97f44c7964369b7fe97bc034707876",
      "blockNumber": "0x221bb28",
      "gasUsed": "0x72a02",
      "effectiveGasPrice": "0x124f80",
      "blobGasUsed": "0x1a208",
      "from": "0x32fe11d9900d63350016374be98ff37c3af75847",
      "to": "0x4aafcb744e5a9923640838c4788455b2cc1ebd48",
      "contractAddress": null,
      "daFootprintGasScalar": "0x138",
      "l1BaseFeeScalar": "0x44d",
      "l1BlobBaseFee": "0x1",
      "l1BlobBaseFeeScalar": "0xa118b",
      "l1Fee": "0x53",
      "l1GasPrice": "0xa",
      "l1GasUsed": "0x157e"
    },
    {
      "status": "0x1",
      "cumulativeGasUsed": "0x5d4e49",
      "logs": [
        {
          "address": "0x4aafcb744e5a9923640838c4788455b2cc1ebd48",
          "topics": [
            "0x852115f98c3c55ed6b147d98c2968942dab6d7d5d496bfba106c426c2eea62f5",
            "0x000000000000000000000000000000000000000000000000000000000000000c",
            "0x0000000000000000000000000000000000000000000000000000000000000004"
          ],
          "data": "0x0000000000000000000000000000000000000000000000000000000000000040000000000000000000000000000000000000000000000000000016bcc41e90000000000000000000000000000000000000000000000000000000000000000019506f727461626c6520436861726765722032303030306d416800000000000000",
          "blockHash": "0xa6fcbe07d3c061941e9e0fed57cd19e9be97f44c7964369b7fe97bc034707876",
          "blockNumber": "0x221bb28",
          "blockTimestamp": "0x6956d530",
          "transactionHash": "0x3669a5013294309dbf73b2bbe1e66f8b4b2ad453b4192ea5148e819b34c6c99d",
          "transactionIndex": "0xf",
          "logIndex": "0xf",
          "removed": false
        }
      ],
      "logsBloom": "0x00000000000000020000000000000000000002000000000000000000000000000000000004000200000000200000000000000000000000000000000000000000000000000000040000000000000000000000000000000000000000000000000008000000000000000000000000000000000000000001000000000000000000000000000000000000000000000000000000000000000000000000000000000000000000000000000000000000000000000000000000000000002000000000000000000000000000000000000000000000000000008000000000000000000000200000000000000000000000000000000000000000000001000000000000000000",
      "type": "0x2",
      "transactionHash": "0x3669a5013294309dbf73b2bbe1e66f8b4b2ad453b4192ea5148e819b34c6c99d",
      "transactionIndex": "0xf",
      "blockHash": "0xa6fcbe07d3c061941e9e0fed57cd19e9be97f44c7964369b7fe97bc034707876",
      "blockNumber": "0x221bb28",
      "gasUsed": "0x6d1a7",
      "effectiveGasPrice": "0x124f80",
      "blobGasUsed": "0x194a0",
      "from": "0x32fe11d9900d63350016374be98ff37c3af75847",
      "to": "0x4aafcb744e5a9923640838c4788455b2cc1ebd48",
      "contractAddress": null,
      "daFootprintGasScalar": "0x138",
      "l1BaseFeeScalar": "0x44d",
      "l1BlobBaseFee": "0x1",
      "l1BlobBaseFeeScalar": "0xa118b",
      "l1Fee": "0x53",
      "l1GasPrice": "0xa",
      "l1GasUsed": "0x14c2"
    },
    {
      "status": "0x1",
      "cumulativeGasUsed": "0x6517e6",
      "logs": [
        {
          "address": "0x4aafcb744e5a9923640838c4788455b2cc1ebd48",
          "topics": [
            "0x852115f98c3c55ed6b147d98c2968942dab6d7d5d496bfba106c426c2eea62f5",
            "0x000000000000000000000000000000000000000000000000000000000000000d",
            "0x0000000000000000000000000000000000000000000000000000000000000005"
          ],
          "data": "0x000000000000000000000000000000000000000000000000000000000000004000000000000000000000000000000000000000000000000000001b48eb57e00000000000000000000000000000000000000000000000000000000000000000164b6f7265616e20436572616d6963205465612053657400000000000000000000",
          "blockHash": "0x80eb4140c21993ad53f79e47bb0080384f43d60feaf5f2a94ceb56627f9cbd7c",
          "blockNumber": "0x221bb28",
          "blockTimestamp": "0x6956d530",
          "transactionHash": "0x33568b0558e620dc4b5f3642f7db821d9eee362d8a7194fcd74242fee7cf026c",
          "transactionIndex": "0x11",
          "logIndex": "0x11",
          "removed": false
        }
      ],
      "logsBloom": "0x00000000000000020040000000000000000000000000000000000000000000000000000004000000000000200000000000000000000000000000000000000000000010000000040000000000000000000002000000000000000000000000000000000000000000000000000000000000000000000001000000000000000000000000000000000000000000000000001000000800000000000000000000000000000000000000000000000000000000000000000000000000000000000000000000000000000000000000000000000000000000000000000000000000000000020000000000000000000000000000000000000000000001000000000000000000",
      "type": "0x2",
      "transactionHash": "0x33568b0558e620dc4b5f3642f7db821d9eee362d8a7194fcd74242fee7cf026c",
      "transactionIndex": "0x11",
      "blockHash": "0x80eb4140c21993ad53f79e47bb0080384f43d60feaf5f2a94ceb56627f9cbd7c",
      "blockNumber": "0x221bb28",
      "gasUsed": "0x7144f",
      "effectiveGasPrice": "0x124f80",
      "blobGasUsed": "0x17628",
      "from": "0x32fe11d9900d63350016374be98ff37c3af75847",
      "to": "0x4aafcb744e5a9923640838c4788455b2cc1ebd48",
      "contractAddress": null,
      "daFootprintGasScalar": "0x138",
      "l1BaseFeeScalar": "0x44d",
      "l1BlobBaseFee": "0x1",
      "l1BlobBaseFeeScalar": "0xa118b",
      "l1Fee": "0x101",
      "l1GasPrice": "0xa",
      "l1GasUsed": "0x133e"
    },
    {
      "status": "0x1",
      "cumulativeGasUsed": "0x6b8fa5",
      "logs": [
        {
          "address": "0x4aafcb744e5a9923640838c4788455b2cc1ebd48",
          "topics": [
            "0x852115f98c3c55ed6b147d98c2968942dab6d7d5d496bfba106c426c2eea62f5",
            "0x000000000000000000000000000000000000000000000000000000000000000e",
            "0x0000000000000000000000000000000000000000000000000000000000000005"
          ],
          "data": "0x0000000000000000000000000000000000000000000000000000000000000040000000000000000000000000000000000000000000000000000012309ce54000000000000000000000000000000000000000000000000000000000000000001048616e6a69205061706572204c616d7000000000000000000000000000000000",
          "blockHash": "0x80eb4140c21993ad53f79e47bb0080384f43d60feaf5f2a94ceb56627f9cbd7c",
          "blockNumber": "0x221bb28",
          "blockTimestamp": "0x6956d530",
          "transactionHash": "0xf954b9e4489a5f355e0073c3520e2802fdf9536673499cd68fd1b04b2c9a6abc",
          "transactionIndex": "0x12",
          "logIndex": "0x12",
          "removed": false
        }
      ],
      "logsBloom": "0x00000000000000020000000000000000000000000000000000000000000000000000000004000000000000200000000000000000000000000000000000000000000010000000040800000000000000000000000000000000000000000000000000000000000000000000000000000000000000000001000000000000000000000000000000000000000000000000001008000800000000000000000000000000000000000000000000000000000000000000000000000020000000000000000000000000000000000000000000000000000000000000000000000000000000000000000000000000000000000000000000000000000001000000000000000000",
      "type": "0x2",
      "transactionHash": "0xf954b9e4489a5f355e0073c3520e2802fdf9536673499cd68fd1b04b2c9a6abc",
      "transactionIndex": "0x12",
      "blockHash": "0x80eb4140c21993ad53f79e47bb0080384f43d60feaf5f2a94ceb56627f9cbd7c",
      "blockNumber": "0x221bb28",
      "gasUsed": "0x677bf",
      "effectiveGasPrice": "0x124f80",
      "blobGasUsed": "0x15b58",
      "from": "0x32fe11d9900d63350016374be98ff37c3af75847",
      "to": "0x4aafcb744e5a9923640838c4788455b2cc1ebd48",
      "contractAddress": null,
      "daFootprintGasScalar": "0x138",
      "l1BaseFeeScalar": "0x44d",
      "l1BlobBaseFee": "0x1",
      "l1BlobBaseFeeScalar": "0xa118b",
      "l1Fee": "0x101",
      "l1GasPrice": "0xa",
      "l1GasUsed": "0x11d5"
    },
    {
      "status": "0x1",
      "cumulativeGasUsed": "0x74e603",
      "logs": [
        {
          "address": "0x4aafcb744e5a9923640838c4788455b2cc1ebd48",
          "topics": [
            "0x852115f98c3c55ed6b147d98c2968942dab6d7d5d496bfba106c426c2eea62f5",
            "0x000000000000000000000000000000000000000000000000000000000000000f",
            "0x0000000000000000000000000000000000000000000000000000000000000005"
          ],
          "data": "0x000000000000000000000000000000000000000000000000000000000000004000000000000000000000000000000000000000000000000000000ae9f7bcc000000000000000000000000000000000000000000000000000000000000000001442616d626f6f204f7267616e697a657220536574000000000000000000000000",
          "blockHash": "0x9c5cf71ae385401d9ce129974ba93a1aa646659814268bdd91dc18d2d7fdaccb",
          "blockNumber": "0x221bb28",
          "blockTimestamp": "0x6956d530",
          "transactionHash": "0x586759eee737cd27044959855dae720317ad1b9ff8738899780b107d9d92d032",
          "transactionIndex": "0x15",
          "logIndex": "0x16",
          "removed": false
        }
      ],
      "logsBloom": "0x00000000000000020000000000000000000000000000000000000000000000000000000004000000000000200000000000000000000000000000000000000000000010000000040000000000000000000000000000000000000000000002000000000000000000000000000000000000000000000001000000000000000000000000000000000800000000000000001000000800000000000000000000000000000000000000000000000000000000000000000000000000000000000000000000000000000000000000000000000000000000000000000000000000000000000000000200000000000000000000000000000000000001000000000000000000",
      "type": "0x2",
      "transactionHash": "0x586759eee737cd27044959855dae720317ad1b9ff8738899780b107d9d92d032",
      "transactionIndex": "0x15",
      "blockHash": "0x9c5cf71ae385401d9ce129974ba93a1aa646659814268bdd91dc18d2d7fdaccb",
      "blockNumber": "0x221bb28",
      "gasUsed": "0x6d1bf",
      "effectiveGasPrice": "0x124f80",
      "blobGasUsed": "0x18870",
      "from": "0x32fe11d9900d63350016374be98ff37c3af75847",
      "to": "0x4aafcb744e5a9923640838c4788455b2cc1ebd48",
      "contractAddress": null,
      "daFootprintGasScalar": "0x138",
      "l1BaseFeeScalar": "0x44d",
      "l1BlobBaseFee": "0x1",
      "l1BlobBaseFeeScalar": "0xa118b",
      "l1Fee": "0x10e",
      "l1GasPrice": "0xa",
      "l1GasUsed": "0x142f"
    }
  ],
  "libraries": [],
  "pending": [],
  "returns": {},
  "timestamp": 1767298351,
  "chain": 84532,
  "commit": "7a78200"
}