{
  "transactions": [
    {
      "hash": "0xb0ae29b6af0f678d96e81f5ba753ed9b2fe408dc90565dbbe584e8a4303eb5dc",
      "transactionType": "CALL",
      "contractName": null,
      "contractAddress": "0x2de5e038fb2fb0d9998dc1c7c9855b9df156ff93",
      "function": "adminRegisterSeller(address,string,string,string)",
      "arguments": [
        "0x1111111111111111111111111111111111111111",
        "Glow Beauty Korea",
        "beauty",
        "ipfs://bafkreib6qkk6gxgq7xnpvmgfcxmgdmmsmq3yjxflqyrpftqnmb7lbzlkoa"
      ],
      "transaction": {
        "from": "0x32fe11d9900d63350016374be98ff37c3af75847",
        "to": "0x2de5e038fb2fb0d9998dc1c7c9855b9df156ff93",
        "gas": "0x59048",
        "value": "0x0",
        "input": "0xca7d5f010000000000000000000000001111111111111111111111111111111111111111000000000000000000000000000000000000000000000000000000000000008000000000000000000000000000000000000000000000000000000000000000c000000000000000000000000000000000000000000000000000000000000001000000000000000000000000000000000000000000000000000000000000000011476c6f7720426561757479204b6f726561000000000000000000000000000000000000000000000000000000000000000000000000000000000000000000000662656175747900000000000000000000000000000000000000000000000000000000000000000000000000000000000000000000000000000000000000000042697066733a2f2f6261666b7265696236716b6b366778677137786e70766d676663786d67646d6d736d7133796a78666c717972706674716e6d62376c627a6c6b6f61000000000000000000000000000000000000000000000000000000000000",
        "nonce": "0x45",
        "chainId": "0x14a34"
      },
      "additionalContracts": [],
      "isFixedGasLimit": false
    },
    {
      "hash": "0x864ca7c010620039e9f353096b606ccc1b2c4da1edaeda079c40e9a5676ce3e8",
      "transactionType": "CALL",
      "contractName": null,
      "contractAddress": "0x2de5e038fb2fb0d9998dc1c7c9855b9df156ff93",
      "function": "adminRegisterSeller(address,string,string,string)",
      "arguments": [
        "0x2222222222222222222222222222222222222222",
        "Seoul Street Style",
        "fashion",
        "ipfs://bafkreidyv3c7yvwsf6qvqz6fxqknwfmxlq5hk6k7xvhgndjftxq5wpdnxe"
      ],
      "transaction": {
        "from": "0x32fe11d9900d63350016374be98ff37c3af75847",
        "to": "0x2de5e038fb2fb0d9998dc1c7c9855b9df156ff93",
        "gas": "0x5906a",
        "value": "0x0",
        "input": "0xca7d5f010000000000000000000000002222222222222222222222222222222222222222000000000000000000000000000000000000000000000000000000000000008000000000000000000000000000000000000000000000000000000000000000c00000000000000000000000000000000000000000000000000000000000000100000000000000000000000000000000000000000000000000000000000000001253656f756c20537472656574205374796c650000000000000000000000000000000000000000000000000000000000000000000000000000000000000000000766617368696f6e000000000000000000000000000000000000000000000000000000000000000000000000000000000000000000000000000000000000000042697066733a2f2f6261666b7265696479763363377976777366367176717a366678716b6e77666d786c7135686b366b37787668676e646a66747871357770646e7865000000000000000000000000000000000000000000000000000000000000",
        "nonce": "0x46",
        "chainId": "0x14a34"
      },
      "additionalContracts": [],
      "isFixedGasLimit": false
    },
    {
      "hash": "0x8ade9db6bf6bf5c2071b9994c8ffe5c4243ef989368670a286308e2c6c05fbdc",
      "transactionType": "CALL",
      "contractName": null,
      "contractAddress": "0x2de5e038fb2fb0d9998dc1c7c9855b9df156ff93",
      "function": "adminRegisterSeller(address,string,string,string)",
      "arguments": [
        "0x3333333333333333333333333333333333333333",
        "Kimchi Kitchen",
        "food",
        "ipfs://bafkreigfk7jxm4vqz3pqvzl5xhqfxbvuhxjkmxdlxrvxqfpxhzwuqmvnzy"
      ],
      "transaction": {
        "from": "0x32fe11d9900d63350016374be98ff37c3af75847",
        "to": "0x2de5e038fb2fb0d9998dc1c7c9855b9df156ff93",
        "gas": "0x58ff5",
        "value": "0x0",
        "input": "0xca7d5f010000000000000000000000003333333333333333333333333333333333333333000000000000000000000000000000000000000000000000000000000000008000000000000000000000000000000000000000000000000000000000000000c00000000000000000000000000000000000000000000000000000000000000100000000000000000000000000000000000000000000000000000000000000000e4b696d636869204b69746368656e0000000000000000000000000000000000000000000000000000000000000000000000000000000000000000000000000004666f6f64000000000000000000000000000000000000000000000000000000000000000000000000000000000000000000000000000000000000000000000042697066733a2f2f6261666b72656967666b376a786d3476717a337071767a6c35786871667862767568786a6b6d78646c7872767871667078687a7775716d766e7a79000000000000000000000000000000000000000000000000000000000000",
        "nonce": "0x47",
        "chainId": "0x14a34"
      },
      "additionalContracts": [],
      "isFixedGasLimit": false
    },
    {
      "hash": "0x8c00b90086862e86b28925972787714638d68634d5d2ce3dede1d9e4d5f29b67",
      "transactionType": "CALL",
      "contractName": null,
      "contractAddress": "0x2de5e038fb2fb0d9998dc1c7c9855b9df156ff93",
      "function": "adminRegisterSeller(address,string,string,string)",
      "arguments": [
        "0x4444444444444444444444444444444444444444",
        "Tech Galaxy Korea",
        "electronics",
        "ipfs://bafkreidxqkxvjxnhqfxbvuhxjkmxdlxrvxqfpxhzwuqmvnzydyv3c7yvws"
      ],
      "transaction": {
        "from": "0x32fe11d9900d63350016374be98ff37c3af75847",
        "to": "0x2de5e038fb2fb0d9998dc1c7c9855b9df156ff93",
        "gas": "0x5909b",
        "value": "0x0",
        "input": "0xca7d5f010000000000000000000000004444444444444444444444444444444444444444000000000000000000000000000000000000000000000000000000000000008000000000000000000000000000000000000000000000000000000000000000c000000000000000000000000000000000000000000000000000000000000001000000000000000000000000000000000000000000000000000000000000000011546563682047616c617879204b6f726561000000000000000000000000000000000000000000000000000000000000000000000000000000000000000000000b656c656374726f6e6963730000000000000000000000000000000000000000000000000000000000000000000000000000000000000000000000000000000042697066733a2f2f6261666b7265696478716b78766a786e6871667862767568786a6b6d78646c7872767871667078687a7775716d766e7a7964797633633779767773000000000000000000000000000000000000000000000000000000000000",
        "nonce": "0x48",
        "chainId": "0x14a34"
      },
      "additionalContracts": [],
      "isFixedGasLimit": false
    },
    {
      "hash": "0xacfb78f60b7b3b702fab4dd74e899cebf0385c44b9c1840643a89bd31b683982",
      "transactionType": "CALL",
      "contractName": null,
      "contractAddress": "0x2de5e038fb2fb0d9998dc1c7c9855b9df156ff93",
      "function": "adminRegisterSeller(address,string,string,string)",
      "arguments": [
        "0x5555555555555555555555555555555555555555",
        "Hanok Living",
        "home",
        "ipfs://bafkreifxqknwfmxlq5hk6k7xvhgndjftxq5wpdnxegfk7jxm4vqz3pqvzl"
      ],
      "transaction": {
        "from": "0x32fe11d9900d63350016374be98ff37c3af75847",
        "to": "0x2de5e038fb2fb0d9998dc1c7c9855b9df156ff93",
        "gas": "0x58fd4",
        "value": "0x0",
        "input": "0xca7d5f010000000000000000000000005555555555555555555555555555555555555555000000000000000000000000000000000000000000000000000000000000008000000000000000000000000000000000000000000000000000000000000000c00000000000000000000000000000000000000000000000000000000000000100000000000000000000000000000000000000000000000000000000000000000c48616e6f6b204c6976696e6700000000000000000000000000000000000000000000000000000000000000000000000000000000000000000000000000000004686f6d65000000000000000000000000000000000000000000000000000000000000000000000000000000000000000000000000000000000000000000000042697066733a2f2f6261666b7265696678716b6e77666d786c7135686b366b37787668676e646a66747871357770646e786567666b376a786d3476717a337071767a6c000000000000000000000000000000000000000000000000000000000000",
        "nonce": "0x49",
        "chainId": "0x14a34"
      },
      "additionalContracts": [],
      "isFixedGasLimit": false
    }
  ],
  "receipts": [
    {
      "status": "0x1",
      "cumulativeGasUsed": "0x2fa364",
      "logs": [
        {
          "address": "0x2de5e038fb2fb0d9998dc1c7c9855b9df156ff93",
          "topics": [
            "0x20461163791089bbe1c38af77ba6d5802d1b7890b7c4b7b8e6fa314d9f98870d",
            "0x0000000000000000000000000000000000000000000000000000000000000001",
            "0x0000000000000000000000001111111111111111111111111111111111111111"
          ],
          "data": "0x000000000000000000000000000000000000000000000000000000000000004000000000000000000000000000000000000000000000000000000000000000800000000000000000000000000000000000000000000000000000000000000011476c6f7720426561757479204b6f72656100000000000000000000000000000000000000000000000000000000000000000000000000000000000000000000066265617574790000000000000000000000000000000000000000000000000000",
          "blockHash": "0x8d78e7d1dea8e4f04572c278ab9fdab0493e6b52e54a37523e3375a0d0c12ed3",
          "blockNumber": "0x22188b5",
          "blockTimestamp": "0x6956704a",
          "transactionHash": "0xb0ae29b6af0f678d96e81f5ba753ed9b2fe408dc90565dbbe584e8a4303eb5dc",
          "transactionIndex": "0x9",
          "logIndex": "0x6c",
          "removed": false
        }
      ],
      "logsBloom": "0x00000000000000000000000000000000000000000000000000000000000000000000000000800000000000000000000000000000000000000000000000040000000000000000000000000000000000000000000000040000000004000000000000000001000000000000000000000000000000000000000000000000000200000000000000000000000000000000000000000000000020000000000000000000240000000008000000000000000000000000000000000000000000000000000000000000000000000000000000000000000000000000000000000400000040000000000000000000000000000000000000000000000000000000000000000000",
      "type": "0x2",
      "transactionHash": "0xb0ae29b6af0f678d96e81f5ba753ed9b2fe408dc90565dbbe584e8a4303eb5dc",
      "transactionIndex": "0x9",
      "blockHash": "0x8d78e7d1dea8e4f04572c278ab9fdab0493e6b52e54a37523e3375a0d0c12ed3",
      "blockNumber": "0x22188b5",
      "gasUsed": "0x40728",
      "effectiveGasPrice": "0x124f80",
      "blobGasUsed": "0xdc98",
      "from": "0x32fe11d9900d63350016374be98ff37c3af75847",
      "to": "0x2de5e038fb2fb0d9998dc1c7c9855b9df156ff93",
      "contractAddress": null,
      "daFootprintGasScalar": "0x138",
      "l1BaseFeeScalar": "0x44d",
      "l1BlobBaseFee": "0x4a",
      "l1BlobBaseFeeScalar": "0xa118b",
      "l1Fee": "0x91bd",
      "l1GasPrice": "0x5d2",
      "l1GasUsed": "0xb59"
    },
    {
      "status": "0x1",
      "cumulativeGasUsed": "0x33aaa4",
      "logs": [
        {
          "address": "0x2de5e038fb2fb0d9998dc1c7c9855b9df156ff93",
          "topics": [
            "0x20461163791089bbe1c38af77ba6d5802d1b7890b7c4b7b8e6fa314d9f98870d",
            "0x0000000000000000000000000000000000000000000000000000000000000002",
            "0x0000000000000000000000002222222222222222222222222222222222222222"
          ],
          "data": "0x00000000000000000000000000000000000000000000000000000000000000400000000000000000000000000000000000000000000000000000000000000080000000000000000000000000000000000000000000000000000000000000001253656f756c20537472656574205374796c650000000000000000000000000000000000000000000000000000000000000000000000000000000000000000000766617368696f6e00000000000000000000000000000000000000000000000000",
          "blockHash": "0x8d78e7d1dea8e4f04572c278ab9fdab0493e6b52e54a37523e3375a0d0c12ed3",
          "blockNumber": "0x22188b5",
          "blockTimestamp": "0x6956704a",
          "transactionHash": "0x864ca7c010620039e9f353096b606ccc1b2c4da1edaeda079c40e9a5676ce3e8",
          "transactionIndex": "0xa",
          "logIndex": "0x6d",
          "removed": false
        }
      ],
      "logsBloom": "0x04000000000000000000000000000000000000000000000000000000000000000000000000800000000000000000000000080000000000000000000020000000000000000000000000000000000000000000000000000000000004000000000000000001000000000000000000000000000000000000000000000000000000000000000000000000000000000000000000000000000020000000000000000000000000000008000000000100000000000000000000000000000000000000000000000000000000000000000000000000000000000000000000000400000000000000000000000000000000000000000000000800008000000000000000000000",
      "type": "0x2",
      "transactionHash": "0x864ca7c010620039e9f353096b606ccc1b2c4da1edaeda079c40e9a5676ce3e8",
      "transactionIndex": "0xa",
      "blockHash": "0x8d78e7d1dea8e4f04572c278ab9fdab0493e6b52e54a37523e3375a0d0c12ed3",
      "blockNumber": "0x22188b5",
      "gasUsed": "0x40740",
      "effectiveGasPrice": "0x124f80",
      "blobGasUsed": "0xe178",
      "from": "0x32fe11d9900d63350016374be98ff37c3af75847",
      "to": "0x2de5e038fb2fb0d9998dc1c7c9855b9df156ff93",
      "contractAddress": null,
      "daFootprintGasScalar": "0x138",
      "l1BaseFeeScalar": "0x44d",
      "l1BlobBaseFee": "0x4a",
      "l1BlobBaseFeeScalar": "0xa118b",
      "l1Fee": "0x91bd",
      "l1GasPrice": "0x5d2",
      "l1GasUsed": "0xb9c"
    },
    {
      "status": "0x1",
      "cumulativeGasUsed": "0x37b190",
      "logs": [
        {
          "address": "0x2de5e038fb2fb0d9998dc1c7c9855b9df156ff93",
          "topics": [
            "0x20461163791089bbe1c38af77ba6d5802d1b7890b7c4b7b8e6fa314d9f98870d",
            "0x0000000000000000000000000000000000000000000000000000000000000003",
            "0x0000000000000000000000003333333333333333333333333333333333333333"
          ],
          "data": "0x00000000000000000000000000000000000000000000000000000000000000400000000000000000000000000000000000000000000000000000000000000080000000000000000000000000000000000000000000000000000000000000000e4b696d636869204b69746368656e0000000000000000000000000000000000000000000000000000000000000000000000000000000000000000000000000004666f6f6400000000000000000000000000000000000000000000000000000000",
          "blockHash": "0x8d78e7d1dea8e4f04572c278ab9fdab0493e6b52e54a37523e3375a0d0c12ed3",
          "blockNumber": "0x22188b5",
          "blockTimestamp": "0x6956704a",
          "transactionHash": "0x8ade9db6bf6bf5c2071b9994c8ffe5c4243ef989368670a286308e2c6c05fbdc",
          "transactionIndex": "0xb",
          "logIndex": "0x6e",
          "removed": false
        }
      ],
      "logsBloom": "0x00000000000000000000000000000002000000000000000000000000000000000000000000800000000000000000000000000000020004000000000000000000000000000000000000000000000000000000000000000000000004000000000000000001000000000000000000000000000000000000000000000000000000000000000000000000000000000000000000000000000020000000000000000000000000000008000000000000000000000000000000800000000000000000400000000000000000000000000000000000000000000000000000000400000000000000000000000000000000000000000000000000100000000000000000000000",
      "type": "0x2",
      "transactionHash": "0x8ade9db6bf6bf5c2071b9994c8ffe5c4243ef989368670a286308e2c6c05fbdc",
      "transactionIndex": "0xb",
      "blockHash": "0x8d78e7d1dea8e4f04572c278ab9fdab0493e6b52e54a37523e3375a0d0c12ed3",
      "blockNumber": "0x22188b5",
      "gasUsed": "0x406ec",
      "effectiveGasPrice": "0x124f80",
      "blobGasUsed": "0xdb60",
      "from": "0x32fe11d9900d63350016374be98ff37c3af75847",
      "to": "0x2de5e038fb2fb0d9998dc1c7c9855b9df156ff93",
      "contractAddress": null,
      "daFootprintGasScalar": "0x138",
      "l1BaseFeeScalar": "0x44d",
      "l1BlobBaseFee": "0x4a",
      "l1BlobBaseFeeScalar": "0xa118b",
      "l1Fee": "0x91bd",
      "l1GasPrice": "0x5d2",
      "l1GasUsed": "0xb4c"
    },
    {
      "status": "0x1",
      "cumulativeGasUsed": "0x3bb8f4",
      "logs": [
        {
          "address": "0x2de5e038fb2fb0d9998dc1c7c9855b9df156ff93",
          "topics": [
            "0x20461163791089bbe1c38af77ba6d5802d1b7890b7c4b7b8e6fa314d9f98870d",
            "0x0000000000000000000000000000000000000000000000000000000000000004",
            "0x0000000000000000000000004444444444444444444444444444444444444444"
          ],
          "data": "0x000000000000000000000000000000000000000000000000000000000000004000000000000000000000000000000000000000000000000000000000000000800000000000000000000000000000000000000000000000000000000000000011546563682047616c617879204b6f726561000000000000000000000000000000000000000000000000000000000000000000000000000000000000000000000b656c656374726f6e696373000000000000000000000000000000000000000000",
          "blockHash": "0x8d78e7d1dea8e4f04572c278ab9fdab0493e6b52e54a37523e3375a0d0c12ed3",
          "blockNumber": "0x22188b5",
          "blockTimestamp": "0x6956704a",
          "transactionHash": "0x8c00b90086862e86b28925972787714638d68634d5d2ce3dede1d9e4d5f29b67",
          "transactionIndex": "0xc",
          "logIndex": "0x6f",
          "removed": false
        }
      ],
      "logsBloom": "0x00000000000000000000000000000000000000000000000000000000000000000200000000800000000000000000000000000000000000000000000000000000000000000000000000000000000000000000000000000000000004000000000008000001000080000000000000000000000000000000000000000000000000000000000000000000000000000000000000000000000020000000000000000000000000000008000000000000000000000000000000000000002000000000000000000000000000000000000000000040000000008000000000000400000000000000000000000000000000000000000000000000000000000000000000000000",
      "type": "0x2",
      "transactionHash": "0x8c00b90086862e86b28925972787714638d68634d5d2ce3dede1d9e4d5f29b67",
      "transactionIndex": "0xc",
      "blockHash": "0x8d78e7d1dea8e4f04572c278ab9fdab0493e6b52e54a37523e3375a0d0c12ed3",
      "blockNumber": "0x22188b5",
      "gasUsed": "0x40764",
      "effectiveGasPrice": "0x124f80",
      "blobGasUsed": "0xe520",
      "from": "0x32fe11d9900d63350016374be98ff37c3af75847",
      "to": "0x2de5e038fb2fb0d9998dc1c7c9855b9df156ff93",
      "contractAddress": null,
      "daFootprintGasScalar": "0x138",
      "l1BaseFeeScalar": "0x44d",
      "l1BlobBaseFee": "0x4a",
      "l1BlobBaseFeeScalar": "0xa118b",
      "l1Fee": "0x91bd",
      "l1GasPrice": "0x5d2",
      "l1GasUsed": "0xbc4"
    },
    {
      "status": "0x1",
      "cumulativeGasUsed": "0x3fbfc8",
      "logs": [
        {
          "address": "0x2de5e038fb2fb0d9998dc1c7c9855b9df156ff93",
          "topics": [
            "0x20461163791089bbe1c38af77ba6d5802d1b7890b7c4b7b8e6fa314d9f98870d",
            "0x0000000000000000000000000000000000000000000000000000000000000005",
            "0x0000000000000000000000005555555555555555555555555555555555555555"
          ],
          "data": "0x00000000000000000000000000000000000000000000000000000000000000400000000000000000000000000000000000000000000000000000000000000080000000000000000000000000000000000000000000000000000000000000000c48616e6f6b204c6976696e6700000000000000000000000000000000000000000000000000000000000000000000000000000000000000000000000000000004686f6d6500000000000000000000000000000000000000000000000000000000",
          "blockHash": "0x8d78e7d1dea8e4f04572c278ab9fdab0493e6b52e54a37523e3375a0d0c12ed3",
          "blockNumber": "0x22188b5",
          "blockTimestamp": "0x6956704a",
          "transactionHash": "0xacfb78f60b7b3b702fab4dd74e899cebf0385c44b9c1840643a89bd31b683982",
          "transactionIndex": "0xd",
          "logIndex": "0x70",
          "removed": false
        }
      ],
      "logsBloom": "0x00000000000000000000000000000000000000000000000000000000000000000000000000800000000000000000000000000000040000000000000000000000000010000000000000000000000000000000000000000000000004000000000000000001000000000000000000000000000001000000000000000000000000000000000000000000000000000000001000000800000020000000000000000000000000000008000000000000000000000000000000000000000000000000000000000000000000000000000000000000000000000000000000000400000000000000000800000000000000000000000000000000000000000000000000000000",
      "type": "0x2",
      "transactionHash": "0xacfb78f60b7b3b702fab4dd74e899cebf0385c44b9c1840643a89bd31b683982",
      "transactionIndex": "0xd",
      "blockHash": "0x8d78e7d1dea8e4f04572c278ab9fdab0493e6b52e54a37523e3375a0d0c12ed3",
      "blockNumber": "0x22188b5",
      "gasUsed": "0x406d4",
      "effectiveGasPrice": "0x124f80",
      "blobGasUsed": "0xda28",
      "from": "0x32fe11d9900d63350016374be98ff37c3af75847",
      "to": "0x2de5e038fb2fb0d9998dc1c7c9855b9df156ff93",
      "contractAddress": null,
      "daFootprintGasScalar": "0x138",
      "l1BaseFeeScalar": "0x44d",
      "l1BlobBaseFee": "0x4a",
      "l1BlobBaseFeeScalar": "0xa118b",
      "l1Fee": "0x91bd",
      "l1GasPrice": "0x5d2",
      "l1GasUsed": "0xb3e"
    }
  ],
  "libraries": [],
  "pending": [],
  "returns": {},
  "timestamp": 1767272521,
  "chain": 84532,
  "commit": "aff47ed"
}